:020000040800F2
:10000000300C002061020008FD420008793700082A
:10001000F942000881170008654E00080000000042
:10002000000000000000000000000000694B000814
:10003000851700080000000091490008C14B000826
:100040007B0200087B0200087B0200087B0200089C
:100050007B0200087B0200087B0200087B0200088C
:100060007B0200087B0200087B0200087B0200087C
:100070007B0200087B0200087B0200087B0200086C
:100080007B0200087B0200087B0200087B0200085C
:100090007B0200087B0200087B0200087B0200084C
:1000A0007B0200087B0200087B0200087B0200083C
:1000B0007B0200087B0200087B0200087B0200082C
:1000C0007B0200087B0200087B0200087B0200081C
:1000D0007B0200087B0200087B0200087B0200080C
:1000E0007B0200087B0200087B02000800F002F897
:1000F00000F0A6F814A696E8000CB244B344DA4522
:1001000001D100F09DF8BAE80F000FA696E8300084
:10011000A5EB040504EB0607AAEB0704A7F101070A
:100120004FEA15154FEA3414A4F10104AC4201D38F
:1001300000F086F813F0010F18BFFB1A43F001031B
:1001400000F001F8DBE718477C7E00009C7E000091
:10015000103A24BF78C878C1FAD8520724BF30C8F3
:1001600030C144BF04680C60704700007047000055
:100170000023002400250026103A28BF78C1FBD8B0
:10018000520728BF30C148BF0B6070476E2900F08E
:10019000D381702900F01783662906F02C81652928
:1001A00006F02981672906F02681612906F025815C
:1001B00003681B0A28BF41F08001692900F0808193
:1001C000642900F07D81752900F07A816F2900F0A3
:1001D000A582782900F0E382E92900F03F82E42932
:1001E00000F03C82F52900F03982EF2900F0A2826C
:1001F000F82900F0E2820368DB0928BF41F08001A2
:10020000632901F01580732901F01A80E32901F0B8
:100210002580F32901F02A80002070471FB501F0E6
:100220007BF804000020002105F076FD401C606092
:100230000020002105F05AFDE0601FBD10B510BD83
:1002400001F03CF81146FFF7E9FF04F0C1FE01F0B0
:1002500019F903B4FFF7F2FF03BC01F061F90000E4
:100260000948804709480047FEE7FEE7FEE7FEE74A
:10027000FEE7FEE7FEE7FEE7FEE7FEE70448054986
:10028000054A064B70470000354C0008ED00000899
:1002900030060020300C00203008002030080020FC
:1002A0000FB41CB50C0007AA009007D04142A14230
:1002B00002D32044401E01E04FF0FF30074B7B4447
:1002C00069460190069800F050F90021002C01D0F9
:1002D000009A11701CBC5DF814FB0000CF020000F6
:1002E00010B5431C02E010F8011B71B18107FAD16F
:1002F0004FF0013202C88C1A8C4314EAC211F9D0B3
:10030000C01A0A0603D0C01E10BDC01A10BD0A04D0
:1003100001D0801E10BD0902FCD0401E10BD032A72
:1003200040F2308010F0030C00F0158011F8013B12
:10033000BCF1020F624498BF11F801CB00F8013BF9
:1003400038BF11F8013BA2F1040298BF00F801CBBD
:1003500038BF00F8013B11F0030300F00383083AB3
:10036000C0F0088051F8043B083A51F804CBA0E8EB
:100370000810F5E7121D5CBF51F8043B40F8043B40
:10038000AFF30080D20724BF11F8013B11F801CB75
:1003900048BF11F8012B24BF00F8013B00F801CB46
:1003A00048BF00F8012B70474FF0000200B513461C
:1003B00094469646203922BFA0E80C50A0E80C5085
:1003C000B1F12001BFF4F7AF090728BFA0E80C5036
:1003D00048BF0CC05DF804EB890028BF40F8042B2F
:1003E00008BF704748BF20F8022B11F0804F18BF9C
:1003F00000F8012B704770477047704770B504468E
:1004000085690068C10601D5302600E02026C007B6
:1004100007D070BDD4E9012130469047206A401CC6
:1004200020626D1EF6D570BD70B5044685690078F2
:10043000C00707D170BDD4E9012120209047206A70
:10044000401C20626D1EF6D570BD09684A0501D5B5
:1004500040B27047C905FCD500B2704709684A052B
:1004600001D5C0B27047C905FCD580B2704770B5E0
:100470000C460546012A05D02878800600D5EA6991
:10048000002302E0012305E05B1C934202D2E05C02
:100490000028F9D1A869E618C01AA861286A18448A
:1004A00028622846FFF7AAFF04E0D5E9012114F8E5
:1004B000010B9047B442F8D32846FFF7B5FF70BD53
:1004C0002DE9F0410646002410687529314616A52D
:1004D00010D0FFF7BAFF002802DA404213A507E068
:1004E00031688A0701D512A502E0490704D511A594
:1004F000012401E0FFF7B2FF00210A2206F12407E0
:1005000009E0B0FBF2FCB0FBF2F302FB1C00303060
:1005100078541846491C0028F3D123462A46304611
:10052000BDE8F04100F095BA000000002D00000089
:100530002B0000002000000011680268006A5305CB
:1005400001D508700AE0D30501D5088006E013063E
:1005500003D5C217C1E9000200E00860012070471E
:1005600001694A1C02610878704700B58FB0CDE977
:1005700001310021059105497944CDE90310114667
:10058000684600F02BF90FB000BD0000E5FFFFFF4B
:10059000D1E900239A4202D2531C0B6010707047BD
:1005A0002DE9FF5F15468A460446DFF8AC80F84423
:1005B0000027D8E900103E46CDE9001010E03AF8D7
:1005C00016106A4602A800F055FE411C07D021789B
:1005D000890603D5E269391891420DD80744761C83
:1005E0002078800602D5E069B84205DDAE42E6DB40
:1005F0003AF816000028E2D1A069C01BA06120468D
:10060000FFF7FCFED8E90010CDE90010002017E04C
:100610003AF818106A4602A800F02CFEB0F1FF3F2D
:1006200081460BD000250DF1080B05E0D4E901212E
:100630001BF8050090476D1C4D45F7D308F10100EC
:10064000B0428046E4DB206A384420622046FFF74F
:10065000EBFEBDE8FF9F00004E5E00002DE9F0417B
:100660008046D21D22F007020025D2E90002F529BA
:1006700015A614D0011E72F1000106DA0023D0EB9A
:10068000030063EB020211A608E0D8F800108B0704
:1006900001D50FA602E0490701D50EA60125114696
:1006A000002408F1240704E000F08EF930323A55B6
:1006B000641C50EA0102F7D12B46324621464046DF
:1006C000BDE8F04100F0C5B9000000002D000000B9
:1006D0002B0000002000000030B4002100F12404B1
:1006E00008E002F00705D208303542EA4372DB0821
:1006F0006554491C52EA0305F3D10468002310A293
:10070000250708D504F020040C4304D0C469012354
:100710000CA2641EC46130BC00F09BB910B5044645
:1007200021461068FFF79AFE02462046BDE81040B9
:100730000023D1E7D21D22F00701D1E90023CBE746
:100740000000000030000000F0B40D4601880905EB
:1007500002D5214C7C4402E01F4C7C440E34002125
:1007600000F1240608E002F00F071209E75D42EAF3
:1007700003721B097754491C52EA0307F3D102782C
:100780000023120704D5702D06D009B102231134BD
:100790002246F0BC00F05DB901231034F8E770B5D3
:1007A00004460D4621461068FFF758FE02462946CA
:1007B0002046BDE870400023C6E7D21D22F00703A3
:1007C000D3E90023C0E70368126843F02003036005
:1007D0000823C3610023B7E7B05C00002DE9F05F98
:1007E000894604464FF0000ADFF874B1FB44C0F8B4
:1007F00020A02046E1688847002874D0252806D02C
:10080000D4E901219047206A401C2062F1E70026CC
:100810005F462046E16888472028054607DB312DE2
:1008200005D2781910F8200C08B10643F1E7B0079B
:1008300001D526F00406C4F81CA00027C4F818A0AF
:100840002A2D09D0284605F049FA38B304EB870869
:10085000303DC8F8185019E059F8041B204604EB45
:1008600087029161E1688847012F054618D1E06948
:10087000002820DA26F020061DE0D8F8180000EB4A
:10088000800005EB40003038C8F818002046E168C9
:100890008847054605F022FA0028EED1012F0AD03C
:1008A0002E2D08D12046E16888477F1C0546022F7F
:1008B00046F02006C4DBA069002803DA404246F077
:1008C0000106A061F00701D026F010066C2D0BD0B8
:1008D000682D09D04C2D39D06A2D35D0742D35D0E6
:1008E0007A2D33D016E038E0E1682F46204688475D
:1008F000B842054609D16C2F26D04FF48060E168DC
:10090000064320468847054604E06C2F1AD04FF472
:10091000807006430DB3A5F14100192802D8203597
:1009200046F400664A462946204626604E46FFF7B2
:100930002DFC80B101280BD0F61D26F0070000F138
:10094000080956E74020E4E78020D8E70020D6E7F2
:1009500006F104094DE7284652E7206ABDE8F09FFA
:10096000405C000010B5203AC0F00B80B1E8185090
:10097000A0E81850B1E81850A0E81850203ABFF489
:10098000F5AF5FEA027C24BFB1E81850A0E8185028
:1009900044BF18C918C0BDE810405FEA827C24BF7C
:1009A00051F8043B40F8043B08BF7047D20728BF0A
:1009B00031F8023B48BF11F8012B28BF20F8023B59
:1009C00048BF00F8012B704730B5B0F10A0271F151
:1009D00000034FEA900E4EEA817EB0EB0E0061EB11
:1009E00091014FEA101E4EEA017E10EB0E0041EB22
:1009F00011114FEA102E4EEA016E10EB0E0041EB82
:100A000011214FEA104E4EEA014E10EB0E0041EB61
:100A10001141401841F100014FEAD00040EA417015
:100A20004FEAD1014FEA810444EA907410EB80054B
:100A300044EB01046D1944EB0404521BA3414FF035
:100A4000000348BF0A3200D530BD401C41F100010F
:100A500030BD2DE9F0470D4699469246044600F117
:100A600024080168880604D5E06921F0100121609E
:100A700000E00120A84201DD471B00E00027A1693A
:100A80007A1902EB0900081AA0612078C00602D486
:100A90002046FFF7B3FC002608E0D4E901211AF84C
:100AA00006009047206A401C761C20624E45F4DB0D
:100AB0002078C0060AD52046FFF7A0FC06E0D4E95E
:100AC000012130209047206A401C2062381EA7F187
:100AD0000107F4DC07E0D4E9012118F8050090478C
:100AE000206A401C2062281EA5F10105F3DC204687
:100AF000FFF79AFC2078000602D50220BDE8F087B7
:100B00000120FBE72DE9FF4F0C461E464FF0FF3753
:100B10008BB0D2E90001DDF860800A908A46C1F30B
:100B20000A5505B93D46002108464FF00000BAF1CC
:100B3000000F00F4400005DA00EB80004FF44001A4
:100B400001EA50004FEA9059B9F1010F00DDB946B2
:100B50000A9850EA4A000ED044F61050A5F2FF352C
:100B600045432F14B8F1000F1ED07542291E1EDD1B
:100B7000C9F100021CE0B8F1010F4FF0000001D0F4
:100B8000302103E0F24305E02154401CB042FBDB7E
:100B900030460022002121540B99C1F80880C1E998
:100BA00000200FB0BDE8F08FBD1B6D1CDEE74A468C
:100BB00000DA694206A800F0F3FB06AB93E80700F1
:100BC00003AB83E8070050460A9904F0ABFC8DE8BC
:100BD0000700A0F500501F3800900398002D0ADD93
:100BE00042F21F014A460844002303A903906846C5
:100BF00004F014FF09E0A0F500504A461F38002316
:100C000003A90390684604F01EFF8DE80700000466
:100C1000000C03D04FF0FF30410800E01046B8F15F
:100C2000000F03D00022009215461EE0751E05D469
:100C3000FFF7CAFE303262556D1EF9D5B346012268
:100C4000084302D000227F1C04E02078302801D124
:100C500000227F1E002A099784D01DE0112D07DA9B
:100C6000FFF7B2FE303262556D1C50EA0102F5D139
:100C7000084302D00098C8B10EE00021681E05E0CC
:100C8000235C625C63542254401E491C8142F7DBA2
:100C9000AB46A81B401E0990002004F80B000B98DF
:100CA000099AC0F80880C0E9002B7AE711264FF0B6
:100CB000000857E72DE9F04F88460446D21D22F080
:100CC000070191B0D1E90001CDE90A0104F0F2FF7A
:100CD00002460B98C00F01D02D2007E02068810745
:100CE00001D52B2002E0202101EAC000032A09904F
:100CF00001D0072A05DB03464146204600F010FBE1
:100D00000BE12078800601D5E06900E00620B8F10B
:100D1000650F814606D0B8F1660F18D0B8F1670F9D
:100D200070D131E00020B9F1110F009001DB1123E7
:100D300001E009F101030AAA01A90CA8FFF7E2FEEC
:100D4000DDE90C70002609F10105834647E001202A
:100D50004B4600904FF000470AAA01A90CA8FFF7E4
:100D6000D1FEDDE90DB00C995D46002610B909F100
:100D700001000D18B9EB050003D4C0F1FF3609F1ED
:100D80000105A5EB09002BE0B9F1010F01DA4FF0E5
:100D900001090020B9F1110F0090484601DD11232F
:100DA00000E003460AAA01A90CA8FFF7ABFEDDE9A3
:100DB0000C704D4600268346207800070AD4AB45C8
:100DC00000DA5D4601A8012D04DD411911F8011C6E
:100DD000302907D04F4502DA17F1040F04DA012059
:100DE00082460FE06D1EEEE7002F02DCED1B3E4455
:100DF00003E0781CA84200DD7D1CB81B00F1010A4D
:100E00004FF000472078000703D4AA4501DB4FF0DC
:100E1000FF3A0021B7F1004F0DF143088DF8431060
:100E200024D002202B23002F01DA7F422D230A2118
:100E3000021EA0F1010000DC5FB197FBF1FC97FB03
:100E4000F1F201FB1C7C17460CF1300C08F801CDC7
:100E5000EEE7A8F1010003702188090501D54521BD
:100E600000E06521A0F1010800F8011C09980FA914
:100E7000A1EB0807FF1D00B10120411901EBEA7049
:100E8000A1693844081A401EA0612078C00602D427
:100E90002046FFF7B3FA099828B1D4E90121904719
:100EA000206A401C20622078C00622D52046FFF729
:100EB000A5FA1EE0002E04DBB34502DD01A8805D2B
:100EC00000E03020D4E901219047206A401C2062D4
:100ED000761CAAF101005FEA000A0AD100F01CFAB0
:100EE000C0680168405CD4E901219047206A401C39
:100EF0002062281EA5F10105DCDC07E0D4E9012110
:100F000018F8010B9047206A401C2062381EA7F198
:100F10000107F3DC2046FFF787FA032011B041E612
:100F20002DE9F04F04460D46D21D22F0070089B08E
:100F3000D0E900974846394604F0BCFE0246F80F57
:100F400001D02D2307E02068810701D52B2302E083
:100F5000202101EAC0038DF820300BB1012000E010
:100F60000020032A824601D0072A04DB29462046B6
:100F700000F0D6F93FE12078800601D40D2500E08D
:100F8000E569C7F30A560D2D49DA00214FEA175BD0
:100F900008464FF00000002F00F4400007DA00EB95
:100FA00080004FF4400100EBD07001EA6000811531
:100FB000012901DD4FF0FF3100224FEA850CBCF121
:100FC000180F06D31346ACF118004FF08052C24000
:100FD00003E04FF4801323FA0CF30CF10C0CBCF17A
:100FE000200F04D3ACF1200C09FA0CF001E007FA51
:100FF0000CF000294FF0004801DD18B90FE00ED1C8
:1010000040450CD319EB02095F4121B9404502D19B
:101010009F4329EA0209BBEB175F00D0761C2088AA
:10102000000502D57B48784402E07A4878441938B4
:1010300008AA302302F80A30037C0AF10101002ECD
:101040000AF1020A53546A4602DC4FF0300101E013
:101050004FF031014FF001088DF8001002D0A6F2D8
:10106000FF3603E059EA470100D06B4E002D02DC49
:101070002178090704D54FF002082E218DF80110C0
:10108000C44600210BE0C7F303433F01C35C491C86
:101090006D1E02F80830052908F1010801DA002D5B
:1010A000F1DC00210CE000EB1973491C1B786D1E6C
:1010B000082902F808304FEA091908F1010801DA95
:1010C000002DF0DC21688B0602D516E0A8F101089E
:1010D000E04505DD02EB080313F8013C302BF5D0A9
:1010E000B8F1000F09DD02EB080313F8013C2E2BC9
:1010F00003D1090701D4A8F10108002D05DD3E2127
:1011000002F808106D1E08F10108407C002E02F85C
:10111000080008F1010804DA2D20764202F80800E0
:1011200002E02B2002F808000A214FF47A70864270
:1011300008F101080BDB96FBF0F3303302F80830BE
:1011400096FBF0F308F1010800FB136601E0642E42
:101150000CDB642096FBF0F3303302F8083096FB8A
:10116000F0F308F1010800FB136601E00A2E06DB2C
:1011700096FBF1F0303002F8080008F1010896FB08
:10118000F1F001FB1060303002F80800A16908F1AD
:10119000010808EB050202EB0A00081AA06120789A
:1011A000C00602D42046FFF729F9216A08AE01EBF8
:1011B0000A00206204E0D4E9012116F8010B9047EF
:1011C000BAF1010AF7D22078C00602D52046FFF70F
:1011D00015F96E4609E016F8010B3E280FD0D4E948
:1011E00001219047206A401C2062B8F10108F2D228
:1011F0002046FFF719F909B00320BDE8F08F206AF7
:101200002844206203E0D4E90121302090476D1E7C
:10121000EBD3F8E72A54000002FCFFFF10B5436946
:1012200013B1AFF3008001E0FFF721F9012010BDF9
:10123000127800F124010A7000224A700122EDE7C1
:1012400011684FF0FF32E9E710B5436913B1AFF30E
:10125000008001E0FFF7A4F9012010BD128800F121
:10126000240182840022C2840122EDE711684FF03C
:10127000FF32E9E72DE9F04116460C46054600F03D
:1012800043F8036893F80101012807D0FF2C12D816
:10129000185D80B101202C70BDE8F081D3F8070102
:1012A0003246214603F20713C7182846BC46BDE85C
:1012B000F041002360474FF0FF30EDE7754600F046
:1012C000EBF8AE4605006946534620F00700854618
:1012D00018B020B5FEF7D2FFBDE820404FF0000661
:1012E0004FF000074FF000084FF0000BAC46ACE8A1
:1012F000C009ACE8C009ACE8C009ACE8C00921F0FD
:1013000007018D467047000010B500F005F8001D7C
:1013100010BD00BF054A000000487047380000209B
:101320002DE9F0411F46044603260168072A01F40F
:10133000006004DB08B116A505E016A503E008B1BE
:1013400015A500E015A521F010002060A069C01EC1
:10135000A0610FB1401EA0612046FFF74FF84FB1CA
:10136000D4E9012138469047206A401C2062C01C05
:10137000206206E0206AFAE7D4E9012115F8010BA2
:101380009047761EF8D22046FFF74EF8BDE8F08170
:101390004E414E006E616E00494E4600696E660019
:1013A0002DE9F047814616468AB0354878440DC885
:1013B0008DE80D0032487844801C03AC0DC884E8E9
:1013C0000D0041F69B300844372190FBF1F290FB71
:1013D000F1F5A5F1800501FB12041B3C02D5644226
:1013E000012000E00020DFF898A080460027FA44A2
:1013F000AAF1BE0A0EE0E0070AD03246684607EBC3
:10140000470101230AEB810104F01DFB8DE8070071
:1014100064107F1C002CEED1194F7F44AE3F19E0C1
:10142000E80715D007EB04100DF1180A90E80E003C
:101430008AE80E00C068F04201D19819089032463F
:10144000012306A903A804F0FEFA03AB83E8070012
:101450006D10641C002DE3D14FF001033246694644
:10146000B8F1000F03A802D004F0D8FA01E004F0AC
:10147000EAFAC9E90001C9F808200AB0BDE8F08716
:101480003451000010B50446AFF300802046BDE89B
:101490001040FEF7DEBE0000004870471800002034
:1014A0004FF0013C50F8042B51F8043B9A4221D1F3
:1014B000A2EB0C03934313EACC1317D150F8042B7F
:1014C00051F8043B9A4215D1A2EB0C03934313EA63
:1014D000CC130BD150F8042B51F8043B9A4209D19C
:1014E000A2EB0C03934313EACC13DBD04FF00000C4
:1014F000704700BFD01A01BAB1FA81F101F01801AA
:1015000022FA01F0CB40DBB2C0B2C01AC1F1200117
:101510002CFA01F3D11A914311EAC311E6D17047B5
:1015200001491820ABBEFEE726000200704700000C
:1015300084B003900398C01040F27801C2F2000119
:101540000A88A0EB4200B1F902205043C012029079
:10155000039A0888C0EB22104043000BB1F9041035
:1015600048438013019002980199014440F21860A9
:10157000C2F200000160006800EB800080300012C1
:101580000090009804B0704780B588B00190882022
:1015900002A9182200F0B4F80199BDF808000880EB
:1015A000BDF80A004880BDF80C008880BDF80E0028
:1015B000C880BDF810000881BDF812004881BDF850
:1015C00014008881BDF81600C881BDF81800088293
:1015D000BDF81A004882BDF81C008882BDF81E00C4
:1015E000C88208B080BD000080B582B0FA200DF13D
:1015F0000501032200F084F89DF805009DF80620FF
:101600009DF80710000340EA021040EA1110009014
:101610000098FFF78DFF02B080BD000081B0009000
:10162000009840F20861C2F20001086001B0704702
:1016300080B588B007900798FFF7F0FF01A80090E9
:10164000FFF7A2FF009940F27800C2F200001822D2
:10165000FEF765FE08B080BD80B584B040F214503E
:10166000C2F20000FFF7E4FF04208DF80C00022016
:101670008DF80B0003208DF80F0005208DF80D006C
:101680008DF80E009DF80F008DF80400DDF80B00BA
:1016900000900098019900F003F804B080BD0000AC
:1016A00080B586B0039102909DF80C008DF814006F
:1016B000029804909DF810009DF81110400140EA36
:1016C00081008DF807009DF812009DF813209DF809
:1016D0001410400140EA820001F0030108448DF833
:1016E0000600F4200DF106010122009200F028F816
:1016F000009AF5200DF1070100F022F806B080BD38
:1017000080B586B08DF817000491ADF80E2040F238
:101710000860C2F2000000689DF817200499BDF827
:101720000EC06B464FF00A0EC3F808E0C3F804C0C1
:101730001960EC21012300F07DFB06B080BD0000A4
:1017400080B586B08DF817000491ADF80E2040F2F8
:101750000860C2F2000000689DF817200499BDF8E7
:101760000EC06B464FF00A0EC3F808E0C3F804C081
:101770001960EC21012300F0CDFD06B080BD000012
:10178000FFE7FEE77047000081B0EFF3108072B60C
:101790000090FFE7FEE7000080B584B0039000F002
:1017A000F1F90290039801900198013048B1FFE7E8
:1017B00040F20C00C2F20000017801980844019048
:1017C000FFE7FFE700F0DEF90299401A019988422D
:1017D00001D2FFE7F6E704B080BD000090B00F90A3
:1017E0000E9100200D900990FFE70E9800680D996A
:1017F000C840002800F07F81FFE70D990120884054
:101800000C900E9800680C9908400B900B980C995E
:10181000884240F06C81FFE70E98406805900028F0
:1018200051D0FFE7059801283AD0FFE70598022834
:101830003FD0FFE7059803285FD0FFE70598112800
:1018400032D0FFE70598122838D0FFE7059800212D
:10185000C1F21101884236D0FFE705980021C1F29C
:10186000120188422FD0FFE705980021C1F2210123
:10187000884228D0FFE705980021C1F22201884262
:1018800021D0FFE705980021C1F2310188421AD02A
:10189000FFE705980021C1F23201884213D02FE002
:1018A0000E98C06809902CE00E98C068043009902A
:1018B00027E00E98C0680830099022E00E98C068B2
:1018C0000C3009901DE00E98806818B9FFE70420DD
:1018D000099011E00E988068012806D1FFE70820E2
:1018E00009900C980F99086105E0082009900C9860
:1018F0000F994861FFE7FFE703E00020099000E04F
:10190000FFE70B98FF2803D8FFE70F98049003E048
:101910000F9804300490FFE7049808900B98FF2874
:1019200004D8FFE70D988000039006E00D996FF052
:101930001F0000EB81000390FFE7039807900898D1
:101940000068079A0F219140884309999140084304
:10195000089908600E98C079C006002840F1C6803A
:10196000FFE7FFE741F21800C4F20200016841F00E
:1019700001010160006800F0010006900698FFE791
:101980000D9820F003000821C4F2010140580A908C
:101990000D9800F0030081000F2000FA01F10A9871
:1019A00088430A900F9840F60001C4F20101884272
:1019B00003D1FFE70020029026E00F9840F6004197
:1019C000C4F20101884203D1FFE70120019018E031
:1019D0000F9841F20001C4F20101884203D1FFE7F0
:1019E000022000900AE00F9941F20042C4F2010285
:1019F0000420914208BF03200090FFE70098019067
:101A0000FFE701980290FFE702980D9901F00301AA
:101A1000890000FA01F10A9808430A900A980D9982
:101A200021F003010822C4F2010288500E98807947
:101A3000C006002809D5FFE70B9A40F20841C4F21E
:101A4000010108681043086008E00B9A40F2084161
:101A5000C4F20101086890430860FFE70E9880799E
:101A60008006002809D5FFE70B9A40F20C41C4F22A
:101A7000010108681043086008E00B9A40F20C412D
:101A8000C4F20101086890430860FFE70E9880796E
:101A90008007002809D5FFE70B9A40F20441C4F201
:101AA000010108681043086008E00B9A40F2044105
:101AB000C4F20101086890430860FFE70E9880793E
:101AC000C00748B1FFE70B9A40F20041C4F20101A0
:101AD00008681043086008E00B9A40F20041C4F225
:101AE0000101086890430860FFE7FFE7FFE70D98F2
:101AF00001300D9079E610B07047000082B001907F
:101B0000ADF8021001988068BDF80210084204D0B8
:101B1000FFE701208DF8010003E000208DF80100AF
:101B2000FFE79DF8010002B07047000083B002900B
:101B3000ADF806100298C0680090009ABDF8060043
:101B400002EA0001904340EA01400299086103B0B3
:101B50007047000082B00190ADF802108DF80120AE
:101B60009DF8010028B1FFE7BDF802000199086166
:101B700005E0BDF80200000401990861FFE702B02A
:101B80007047000040F22C60C2F20000006870470D
:101B900080B58EB00C900C9820B9FFE701208DF82D
:101BA000370043E10C9890F83D0040B9FFE70C99ED
:101BB000002081F83C000C9800F0B4FCFFE70C9981
:101BC000242081F83D000C980168086820F001008D
:101BD00008600C980168086840F4004008600C98A0
:101BE0000168086820F40040086000F0BBFE0A901D
:101BF0000C98406848F2A061C0F2010188420BD8FD
:101C0000FFE70A9948F28042C0F21E02002091428A
:101C100038BF012009900AE00A9940F60012C0F28C
:101C20003D020020914238BF01200990FFE709984A
:101C3000012804D1FFE701208DF83700F6E00A986B
:101C40004DF68361C4F21B31A0FB0110800C0B9098
:101C50000C980068406820F03F000B9908430C99ED
:101C6000096848600C980068006A20F03F000890FE
:101C70000C98406848F2A061C0F20101884204D883
:101C8000FFE70B98013007900EE00B984FF4967128
:101C9000484344F6D351C1F26201A0FB0101012087
:101CA00000EB91100790FFE70898079908430C99FB
:101CB000096808620C980068C0694CF6FF71884397
:101CC00006900C98406848F2A061C0F20101884279
:101CD0001FD8FFE70A9801380C9949684900B0FB02
:101CE000F1F001306FF31F30032803D8FFE7042021
:101CF00005900BE00A9801380C9949684900B0FB3F
:101D0000F1F001306FF31F300590FFE70598049064
:101D10004CE00C98806868B9FFE70A9801380C9984
:101D2000496801EB4101B0FBF1F001306FF31F3066
:101D300003900DE00A9801380C9949681922514323
:101D4000B0FBF1F00130042161F31F300390FFE795
:101D50000398000518B9FFE70120029023E00C98D2
:101D6000806868B9FFE70A9801380C99496801EB67
:101D70004101B0FBF1F001306FF31F3001900DE035
:101D80000A9801380C99496819225143B0FBF1F0C7
:101D90000130042161F31F300190FFE7019840F406
:101DA00000400290FFE702980490FFE7069804992C
:101DB00008430C990968C8610C980068006820F015
:101DC000C0000C9B1968DA691B6A1A43104308604B
:101DD0000C980068806848F2FF3188430C9A1168BB
:101DE000D36812691A43104388600C980068C06871
:101DF00020F0FF000C9B19685A699B691A43104335
:101E0000C8600C980168086840F0010008600C99EF
:101E1000002008640C9A202182F83D100C99086378
:101E20000C9981F83E008DF83700FFE79DF83700E8
:101E30000EB080BD10B590B0844614981398DDF8AC
:101E400048E0CDF828C0ADF82610ADF82420ADF854
:101E50002230ADF8200000200790FFF793FE069097
:101E60000A9890F83D00202840F04B82FFE70A983E
:101E700006996A4611600221C0F21001012219235D
:101E800001F094FE20B1FFE702208DF82F003CE224
:101E9000FFE70A9890F83C00012804D1FFE70220F0
:101EA0008DF82F0031E20A99012081F83C00FFE70C
:101EB000FFE70A9800680068C00738B9FFE70A988A
:101EC0000168086840F001000860FFE70A980168AF
:101ED000086820F4006008600A99222081F83D001B
:101EE0000A99402081F83E000A990020086412985F
:101EF0000A994862BDF820000A9948850A98408DE1
:101F00000A9908850A990020CFF6FF70C8620A98DE
:101F1000BDF82610BDF82420BDF82230DDF850C0F1
:101F2000069CEE46CEF80440CEF800C001F058FC06
:101F300020B1FFE701208DF82F00E6E10A98008D1F
:101F4000A0B9FFE7FFE7002005900A980068406904
:101F500005900A980068806905900598FFE70A983F
:101F60000168086840F4007008605DE00A98008D20
:101F700001281FD1FFE70A980168086820F48060F3
:101F80000860EFF3108072B60F90FFE70020049016
:101F90000A980068406904900A9800688069049073
:101FA0000498FFE70A980168086840F40070086028
:101FB00062B638E00A98008D02281FD1FFE70A9820
:101FC0000168086840F400600860EFF3108072B6A2
:101FD0000E90FFE7002003900A9800684069039084
:101FE0000A980068806903900398FFE70A980168DF
:101FF000086820F48060086062B613E00A980168FF
:10200000086840F480600860FFE7002002900A98AA
:102010000068406902900A980068806902900298FE
:10202000FFE7FFE7FFE7FFE7FFE70A98008D0028DB
:1020300000F05581FFE70A98008D032800F2078120
:10204000FFE70A98008D01281ED1FFE70A9814992E
:10205000069A01F0D9FE20B1FFE701208DF82F008C
:1020600053E10A98006800690A99496A08700A9958
:10207000486A013048620A99088D013808850A9932
:10208000488D01384885E1E00A98008D022841D149
:10209000FFE70A98149B06996A4611600421C0F272
:1020A0000101002201F082FD20B1FFE701208DF83F
:1020B0002F002AE1EFF3108072B60D900A980168A4
:1020C000086840F4007008600A98006800690A997E
:1020D000496A08700A99486A013048620A99088D6D
:1020E000013808850A99488D0138488562B60A98F2
:1020F000006800690A99496A08700A99486A0130BB
:1021000048620A99088D013808850A99488D013876
:1021100048859AE00A98149B06996A461160042142
:10212000C0F20101002201F041FD20B1FFE70120D2
:102130008DF82F00E9E00A980168086820F48060B3
:102140000860EFF3108072B60C900A98006800697E
:102150000A99496A08700A99486A013048620A99DE
:10216000088D013808850A99488D0138488540F264
:102170000000C2F20000006848F21F51C5F2EB11E6
:10218000A0FB0110C00844F6D351C1F26201A0FBCC
:1021900001108009232148430790FFE70798013881
:1021A00007900798D0B9FFE70A99002008630A9AB8
:1021B000202182F83D100A9981F83E000A99086CA6
:1021C00040F02000086462B6FFE70A99002081F819
:1021D0003C00FFE701208DF82F0096E0FFE70A980A
:1021E0000068406900F004010020B0EB910FD5D0E9
:1021F000FFE70A980168086840F4007008600A98D0
:10220000006800690A99496A08700A99486A0130A9
:1022100048620A99088D013808850A99488D013865
:10222000488562B60A98006800690A99496A087088
:102230000A99486A013048620A99088D0138088570
:102240000A99488D01384885FFE7FFE746E00A987C
:102250001499069A01F0D8FD20B1FFE701208DF80E
:102260002F0052E00A98006800690A99496A0870CC
:102270000A99486A013048620A99088D0138088530
:102280000A99488D013848850A980068406900F02D
:1022900004010120B0EB910F1FD1FFE70A98008DD8
:1022A000032807D1FFE70A980168086820F48060D6
:1022B0000860FFE70A98006800690A99496A08708F
:1022C0000A99486A013048620A99088D01380885E0
:1022D0000A99488D01384885FFE7FFE7A5E60A9986
:1022E000202081F83D000A99002081F83E00FFE798
:1022F0000A99002081F83C00FFE700208DF82F00AC
:1023000003E002208DF82F00FFE79DF82F0010B0AA
:1023100010BD000010B588B084460C980B98DDF80D
:1023200028E0CDF818C0ADF81610ADF81420ADF8BF
:102330001230ADF81000FFF725FC0390069890F8D6
:102340003D00202840F0E680FFE7069803996A46A2
:1023500011600221C0F210010122192301F026FCB4
:1023600020B1FFE702208DF81F00D7E0FFE70698B5
:1023700090F83C00012804D1FFE702208DF81F00EF
:10238000CCE00699012081F83C00FFE7FFE70698C2
:1023900000680068C00738B9FFE706980168086858
:1023A00040F001000860FFE706980168086820F423
:1023B000006008600699212081F83D0006994020C0
:1023C00081F83E000699002008640A980699486240
:1023D000BDF81000069948850698408D0699088535
:1023E00006990020CFF6FF70C8620698BDF8161057
:1023F000BDF81420BDF81230DDF830C0039CEE4665
:10240000CEF80440CEF800C001F0DCFA20B1FFE7BE
:1024100001208DF81F0081E0FFE70698008D00285D
:1024200049D0FFE706980C99039A01F05BFD80B153
:10243000FFE70698006C042807D1FFE706980168BB
:10244000086840F400700860FFE701208DF81F0065
:1024500064E006980168406A007808610699486A55
:10246000013048620699088D013808850699488D23
:102470000138488506980068406900F00401012091
:10248000B0EB910F16D1FFE70698008D90B1FFE7F2
:1024900006980168406A007808610699486A013028
:1024A00048620699088D013808850699488D0138DB
:1024B0004885FFE7B1E706980C99039A01F020FBE5
:1024C00080B1FFE70698006C042807D1FFE7069863
:1024D0000168086840F400700860FFE701208DF88B
:1024E0001F001BE006980168086840F4007008604F
:1024F0000699202081F83D000699002081F83E00D1
:10250000FFE70699002081F83C00FFE700208DF8E6
:102510001F0003E002208DF81F00FFE79DF81F0059
:1025200008B010BD80B588B00790002006900590D7
:10253000049003900798006845F20041C4F200013E
:1025400088422CD1FFE7FFE741F21800C4F20200F5
:10255000016841F008010160006800F00800029085
:102560000298FFE7C02003901220049003200690F9
:1025700040F60040C4F2010003A9FFF72FF9FFE77E
:1025800041F21C00C4F20200016841F40011016034
:10259000006800F4001001900198FFE7FFE708B021
:1025A00080BD000040F20C00C2F20000027840F250
:1025B0002C61C2F2000108681044086070470000F6
:1025C00080B542F20001C4F20201086840F0100038
:1025D0000860032000F08CF80F2000F005F800F0F0
:1025E0003BF8002080BD000080B582B0009040F232
:1025F0000000C2F20000006840F20C01C2F20001CB
:102600000A784FF47A71B1FBF2F1B0FBF1F000F00F
:1026100077FF20B1FFE701208DF8070018E0009850
:102620000F280DD8FFE700994FF0FF30002200F08F
:1026300045F8009840F21001C2F20001086003E082
:1026400001208DF8070003E000208DF80700FFE768
:102650009DF8070002B080BD83B0FFE741F218008B
:10266000C4F20200016841F001010160006800F05D
:10267000010002900298FFE7FFE741F21C00C4F25C
:102680000200016841F080510160006800F0805054
:1026900001900198FFE7FFE70421C4F201010868F7
:1026A0000090009820F0E0600090009840F00070EA
:1026B000009000980860FFE703B0704780B586B0CF
:1026C0008DF81700049103920020029002F0CCFBD9
:1026D00002909DF91700019002980499039A01F065
:1026E0000FFE0146019802F0C7FB06B080BD000056
:1026F00080B582B00190019802F0E0FB02B080BD8D
:1027000080B584B002900191029820B9FFE70120C2
:102710008DF80F001BE1019842F20001C4F20201A2
:10272000096801F00701884216D9FFE742F200006C
:10273000C4F20200016821F00701019A114301600F
:10274000006800F007000199884204D0FFE70120EB
:102750008DF80F00FBE0FFE7029800788007002863
:102760002AD5FFE7029800784007002809D5FFE73F
:1027700041F20401C4F20201086840F4E06008601C
:10278000FFE7029800780007002809D5FFE741F22B
:102790000401C4F20201086840F460500860FFE7D9
:1027A00041F20401C4F20201086820F0F000029A2C
:1027B000926810430860FFE702980078C00700287D
:1027C00060D0FFE70298406801280ED1FFE741F290
:1027D0000000C4F2020000688003002804D4FFE770
:1027E00001208DF80F00B2E021E002984068022835
:1027F0000ED1FFE741F20000C4F202000068800140
:10280000002804D4FFE701208DF80F009FE00DE0C1
:1028100041F20000C4F2020000688007002804D4DE
:10282000FFE701208DF80F0091E0FFE7FFE741F29D
:102830000401C4F20201086820F00300029A526801
:1028400010430860FFF79EF90090FFE741F2040093
:10285000C4F20200006800F00C0002994968B0EB75
:10286000810F0ED0FFE7FFF78DF90099401A41F272
:102870008931884204D3FFE703208DF80F0066E01A
:10288000E4E7FFE7019842F20001C4F2020109689F
:1028900001F00701884216D2FFE742F20000C4F2BD
:1028A0000200016821F00701019A114301600068EC
:1028B00000F007000199884204D0FFE701208DF85D
:1028C0000F0044E0FFE702980078400700280CD58D
:1028D000FFE741F20401C4F20201086820F4E0605D
:1028E000029AD26810430860FFE702980078000758
:1028F00000280DD5FFE741F20401C4F20201086887
:1029000020F46050029A126940EAC2000860FFE7B2
:1029100000F04CF841F20401C4F202010968C9B2A6
:102920000A0946F2FC41C0F60001895CC84040F249
:102930000001C2F20001086040F21000C2F2000083
:102940000068FFF751FE00208DF80F00FFE79DF8AB
:102950000F0004B080BD000040F20000C2F2000091
:102960000068704780B5FFF7F7FF41F20401C4F239
:1029700002010968C1F3022246F20C51C0F60001BF
:10298000895CC84080BD000080B5FFF7E5FF41F2DB
:102990000401C4F202010968C1F3C22246F20C51DB
:1029A000C0F60001895CC84080BD000086B00020F0
:1029B0000590049003900290019041F20400C4F24B
:1029C000020000680590059800F00C000146009197
:1029D00000283FD0FFE70098042804D0FFE70098C4
:1029E000082806D037E041F20020C0F27A000190BA
:1029F00037E00598C0F3834146F21450C0F600005A
:102A0000405C02909DF81600C007C0B1FFE741F29C
:102A10000400C4F202000068C0F3404146F22450B2
:102A2000C0F60000405C0490029841F20021C0F220
:102A30007A0148430499B0FBF1F0039007E0029853
:102A400040F60011C0F23D0148430390FFE70398B0
:102A5000019006E0FFE741F20020C0F27A00019009
:102A6000FFE7019806B0704780B586B004900498DF
:102A700020B9FFE701208DF817002EE304980078B5
:102A8000C007002800F0AE80FFE741F20400C4F266
:102A90000200006800F00C00042813D0FFE741F2A8
:102AA0000400C4F20200006800F00C0008281BD1EA
:102AB000FFE741F20400C4F202000068C0030028EE
:102AC00012D5FFE741F20000C4F202000068800363
:102AD000002808D5FFE70498406820B9FFE70120E7
:102AE0008DF81700F9E27CE0FFE704984068B0F544
:102AF000803F09D1FFE741F20001C4F202010868FA
:102B000040F48030086032E00498406868B9FFE71C
:102B100041F20001C4F20201086820F4803008602C
:102B2000086820F48020086020E004984068B0F530
:102B3000A02F0DD1FFE741F20001C4F202010868A5
:102B400040F480200860086840F4803008600CE0A1
:102B500041F20001C4F20201086820F480300860EC
:102B6000086820F480200860FFE7FFE7FFE7FFE741
:102B700004984068D0B1FFE7FFF704F80390FFE73F
:102B800041F20000C4F202000068800300280CD467
:102B9000FFE7FEF7F7FF0399401A652804D3FFE724
:102BA00003208DF8170098E2EAE719E0FEF7EAFF44
:102BB0000390FFE741F20000C4F2020000688003C6
:102BC00000280CD5FFE7FEF7DDFF0399401A6528C2
:102BD00004D3FFE703208DF817007EE2EAE7FFE762
:102BE000FFE7FFE7049800788007002840F18D8018
:102BF000FFE741F20400C4F20200006810F00C0F7D
:102C000013D0FFE741F20400C4F20200006800F0B4
:102C10000C00082829D1FFE741F20400C4F20200A9
:102C20000068C003002820D4FFE741F20000C4F28E
:102C3000020000688007002809D5FFE704980069B2
:102C4000012804D0FFE701208DF8170045E241F28A
:102C50000001C4F20201086820F0F800049A5269E9
:102C600040EAC2000860FFE74EE00498006958B3EC
:102C7000FFE70021C4F2422101200860FEF782FF35
:102C80000390FFE741F20000C4F2020000688007F1
:102C900000280CD4FFE7FEF775FF0399401A0328BC
:102CA00004D3FFE703208DF8170016E2EAE741F2AC
:102CB0000001C4F20201086820F0F800049A526989
:102CC00040EAC20008601EE00021C4F24221002058
:102CD0000860FEF757FF0390FFE741F20000C4F2DF
:102CE00002000068800700280CD5FFE7FEF74AFFC6
:102CF0000399401A032804D3FFE703208DF8170037
:102D0000EBE1EAE7FFE7FFE7FFE704980078000759
:102D1000002848D5FFE70498806918B3FFE740F220
:102D20008041C4F2422101200860FEF72BFF03908E
:102D3000FFE741F22400C4F2020000688007002887
:102D40000CD4FFE7FEF71EFF0399401A032804D3B3
:102D5000FFE703208DF81700BFE1EAE7012001F04B
:102D600019FE1FE040F28041C4F2422100200860B9
:102D7000FEF708FF0390FFE741F22400C4F20200CF
:102D80000068800700280CD5FFE7FEF7FBFE0399DB
:102D9000401A032804D3FFE703208DF817009CE1B5
:102DA000EAE7FFE7FFE7049800784007002840F1D2
:102DB000D880FFE700208DF8070041F21C00C4F224
:102DC00002000068C000002813D4FFE7FFE741F2CB
:102DD0001C00C4F20200016841F0805101600068EB
:102DE00000F0805000900098FFE701208DF8070068
:102DF000FFE747F20000C4F200000068C0050028A9
:102E000022D4FFE747F20001C4F20001086840F451
:102E100080700860FEF7B6FE0390FFE747F20000FF
:102E2000C4F200000068C00500280CD4FFE7FEF7DC
:102E3000A9FE0399401A652804D3FFE703208DF803
:102E400017004AE1EAE7FFE7FFE70498C0680128B6
:102E500009D1FFE741F22001C4F20201086840F005
:102E60000100086031E00498C06868B9FFE741F2EA
:102E70002001C4F20201086820F00100086008681F
:102E800020F0040008601FE00498C06805280DD1F8
:102E9000FFE741F22001C4F20201086840F004009B
:102EA0000860086840F0010008600CE041F2200171
:102EB000C4F20201086820F001000860086820F0F0
:102EC00004000860FFE7FFE7FFE7FFE70498C0683A
:102ED000E0B1FFE7FEF756FE0390FFE741F2200066
:102EE000C4F202000068800700280ED4FFE7FEF756
:102EF00049FE0399401A41F28931884204D3FFE721
:102F000003208DF81700E8E0E8E71BE0FEF73AFE43
:102F10000390FFE741F22000C4F20200006880073E
:102F200000280ED5FFE7FEF72DFE0399401A41F267
:102F30008931884204D3FFE703208DF81700CCE0E5
:102F4000E8E7FFE79DF80700012809D1FFE741F214
:102F50001C01C4F20201086820F080500860FFE7FD
:102F6000FFE70498C069002800F0B380FFE741F252
:102F70000400C4F20200006800F00C00082800F011
:102F80008280FFE70498C06902285CD1FFE76021D6
:102F9000C4F2422100200860FEF7F4FD0390FFE731
:102FA00041F20000C4F202000068800100280CD544
:102FB000FFE7FEF7E7FD0399401A032804D3FFE774
:102FC00003208DF8170088E0EAE70498006AB0F55E
:102FD000803F0CD1FFE741F20401C4F2020108680E
:102FE00020F40030049A926810430860FFE741F231
:102FF0000401C4F20201086820F47410049B1A6AE8
:103000005B6A1A43104308606021C4F24221012028
:103010000860FEF7B7FD0390FFE741F20000C4F23D
:1030200002000068800100280CD4FFE7FEF7AAFD2B
:103030000399401A032804D3FFE703208DF81700F3
:103040004BE0EAE71EE06021C4F242210020086064
:10305000FEF798FD0390FFE741F20000C4F2020082
:103060000068800100280CD5FFE7FEF78BFD03996F
:10307000401A032804D3FFE703208DF817002CE043
:10308000EAE7FFE724E00498C069012804D1FFE7DC
:1030900001208DF8170020E041F20400C4F2020084
:1030A00000680290029800F480300499096A88420E
:1030B00008D1FFE7029800F470100499496A884229
:1030C00004D0FFE701208DF8170006E0FFE7FFE7D7
:1030D000FFE700208DF81700FFE79DF8170006B006
:1030E00080BD000080B584B00290029820B9FFE74F
:1030F00001208DF80F006DE00298406A60B9FFE78B
:1031000002984068B0F5827F01D1FFE703E00299A1
:103110000020C861FFE705E00299002008610299DC
:103120004861FFE7029900208862029890F85100F8
:1031300040B9FFE70299002081F85000029800F0A2
:103140004DF8FFE70299022081F8510002980168CA
:10315000086820F040000860029A019211685068E7
:10316000D2F808C0D36800F482700CF4044C6044B8
:1031700003F400631844136903F00203184453690D
:1031800003F001031844936903F400731844D369EE
:1031900003F038031844136A03F080031843926A5B
:1031A00002F40052104308600299488B00F00400BA
:1031B0000968486002980168C86920F40060C86125
:1031C000029900204865029A012182F851108DF879
:1031D0000F00FFE79DF80F0004B080BD80B588B0F8
:1031E00007900020069005900490039007980068CF
:1031F00043F20001C4F2010188422CD1FFE7FFE74E
:1032000041F21800C4F20200016841F480510160EB
:10321000006800F4805002900298FFE7FFE741F257
:103220001800C4F20200016841F004010160006866
:1032300000F0040001900198FFE7A0200390022015
:1032400004900320069040F60000C4F2010003A998
:10325000FEF7C4FAFFE708B080BD000080B588B073
:1032600006900591ADF812200393FEF78BFC0290B7
:10327000BDF81200ADF80600069890F8510001283C
:1032800004D0FFE702208DF81F0034E1059820B13B
:10329000FFE7BDF8120020B9FFE701208DF81F00FD
:1032A00029E1FFE7069890F85000012804D1FFE7D4
:1032B00002208DF81F001EE10699012081F85000C0
:1032C000FFE7FFE70699032081F8510006990020E7
:1032D00048650599069A1163BDF81210069A918601
:1032E000BDF81210069AD1860699886306998887D8
:1032F0000699C88706994864069908640698806804
:10330000B0F5004F0DD1FFE706980168086820F07E
:103310004000086006980168086840F48040086032
:10332000FFE706980068006800F04000402807D0DA
:10333000FFE706980168086840F040000860FFE772
:103340000698C068B0F5006F51D1FFE70698406855
:1033500028B1FFE7BDF8060001280ED1FFE7069867
:103360000168006B0088C8600699086B023008632A
:103370000699C88E0138C886FFE7FFE70698C08E19
:10338000A0B3FFE7069800688068800700280ED584
:10339000FFE706980168006B0088C8600699086B13
:1033A000023008630699C88E0138C8861DE0FEF712
:1033B000E9FB0299401A0399884204D3FFE7039876
:1033C000013018B9FFE7039870B9FFE706990120AB
:1033D00081F85100FFE70699002081F85000FFE7CF
:1033E00003208DF81F0086E0FFE7C7E750E006984E
:1033F000406828B1FFE7BDF8060001280ED1FFE7BD
:1034000006980168006B007808730699086B013014
:1034100008630699C88E0138C886FFE7FFE706985B
:10342000C08EA0B3FFE70698006880688007002878
:103430000ED5FFE706980168006B007808730699BF
:10344000086B013008630699C88E0138C8861DE0F4
:10345000FEF798FB0299401A0399884204D3FFE7CC
:103460000398013018B9FFE7039870B9FFE7069990
:10347000012081F85100FFE70699002081F85000F3
:10348000FFE703208DF81F0035E0FFE7C7E7FFE700
:1034900006980399029A01F09BFA20B1FFE706997A
:1034A00020204865FFE70698806870B9FFE7FFE7CE
:1034B0000020009006980068C06800900698006898
:1034C000806800900098FFE7FFE70699012081F8E7
:1034D0005100FFE70699002081F85000FFE70698A9
:1034E000406D20B1FFE701208DF81F0003E00020B0
:1034F0008DF81F00FFE79DF81F0008B080BD000099
:1035000080B582B00190019801F030FB02B080BD1F
:1035100080B582B00090009820B9FFE701208DF8B7
:10352000070040E00098806908B1FFE700E0FFE78E
:10353000009890F8410040B9FFE70099002081F819
:103540004000009800F034F8FFE70099242081F84B
:10355000410000980168C86820F40050C8600098D5
:1035600001F0B4FB00980168086920F490400861FC
:1035700000980168486920F02A00486100980168B5
:10358000C86840F40050C860009900204864009A60
:10359000202182F84110009A82F842100099486375
:1035A0008DF80700FFE79DF8070002B080BD00001E
:1035B00080B58AB009900020089007900690059089
:1035C0000998006843F60001C4F20101884239D12C
:1035D000FFE7FFE741F21800C4F20200016841F47E
:1035E00080410160006800F4804004900498FFE787
:1035F000FFE741F21800C4F20200016841F0040143
:103600000160006800F0040003900398FFE74FF4A6
:1036100000700590022006900320089040F60000FC
:10362000C4F20100019005A90291FEF7D7F80198B4
:1036300002994FF480620592002206920792FEF7EB
:10364000CDF8FFE70AB080BD80B58AB00890079139
:10365000ADF81A20059300200290089890F84100D8
:10366000202840F08180FFE7079820B1FFE7BDF8F0
:103670001A0020B9FFE701208DF8270078E00899AB
:10368000002048640899212081F84100FEF77AFA69
:103690000290BDF81A0008998884BDF81A000899AC
:1036A000C88408988068B0F5805F09D1FFE7089862
:1036B000006928B9FFE7002004900798039004E010
:1036C0000798049000200390FFE7FFE70898C08C5C
:1036D00078B3FFE70898029B05996A46116080213C
:1036E000002201F051FB40B1FFE70899202081F84A
:1036F000410003208DF827003AE0049858B9FFE70D
:10370000039800886FF35F20089909684860039860
:103710000230039008E0049800780899096848602E
:10372000049801300490FFE70899C88C0138C884D8
:10373000CCE70898029B05996A4611604021002257
:1037400001F022FB40B1FFE70899202081F84100F9
:1037500003208DF827000BE00899202081F8410014
:1037600000208DF8270003E002208DF82700FFE7F6
:103770009DF827000AB080BDFFE7FEE782B0009009
:1037800000980068406900F480610120B0EB912F3F
:103790001ED1FFE7009801686FF4806048610099CE
:1037A00000200863009A202182F83D10009981F8DA
:1037B0003E000099086C40F004000864FFE700999F
:1037C000002081F83C00FFE701208DF8070003E0AE
:1037D00000208DF80700FFE79DF8070002B0704752
:1037E00080B586B0DDF824C0DDF820C00490ADF8C7
:1037F0000E10ADF80C20ADF80A3004980168086886
:1038000040F48060086004980168086840F48070A3
:1038100008600498089B09996A4611604FF00111ED
:10382000002200F0C3F980B1FFE704980068006847
:10383000C005002805D5FFE704994FF4007008641F
:10384000FFE703208DF81700B7E0BDF80E0000F089
:10385000FE000499096808610498089A099B0221EE
:10386000C0F2010100F026FA20B1FFE701208DF837
:103870001700A2E0FFE7002001900498006840696B
:10388000019004980068806901900198FFE704980E
:103890000899099A00F026FB80B1FFE70498006CB4
:1038A000042807D1FFE704980168086840F4007015
:1038B0000860FFE701208DF817007EE0BDF80A00E0
:1038C000012806D1FFE79DF80C00049909680861FA
:1038D00021E09DF80D000499096808610498089991
:1038E000099A00F0FFFA80B1FFE70498006C042801
:1038F00007D1FFE704980168086840F40070086089
:10390000FFE701208DF8170057E09DF80C0004999F
:1039100009680861FFE704980899099A00F0E2FA3B
:1039200080B1FFE70498006C042807D1FFE70498F2
:103930000168086840F400700860FFE701208DF816
:1039400017003AE004980168086840F48070086045
:103950000498089B09996A4611604FF001110022F2
:1039600000F024F980B1FFE7049800680068C00502
:10397000002805D5FFE704994FF400700864FFE7BD
:1039800003208DF8170018E09DF80E0040F00100AC
:103990000499096808610498089A099B0221C0F2F9
:1039A000010100F087F920B1FFE701208DF8170031
:1039B00003E000208DF81700FFE79DF8170006B020
:1039C00080BD000080B586B0DDF824C0DDF820C0E1
:1039D0000490ADF80E10ADF80C20ADF80A30049844
:1039E0000168086840F4807008600498089B099991
:1039F0006A4611604FF00111002200F0D7F880B143
:103A0000FFE7049800680068C005002805D5FFE7B7
:103A100004994FF400700864FFE703208DF8170045
:103A200069E0BDF80E0000F0FE0004990968086125
:103A30000498089A099B0221C0F2010100F03AF9AA
:103A400020B1FFE701208DF8170054E0FFE70020C8
:103A500001900498006840690190049800688069AA
:103A600001900198FFE704980899099A00F03AFA42
:103A700080B1FFE70498006C042807D1FFE70498A1
:103A80000168086840F400700860FFE701208DF8C5
:103A9000170030E0BDF80A00012806D1FFE79DF8C5
:103AA0000C0004990968086121E09DF80D00049953
:103AB0000968086104980899099A00F013FA80B11E
:103AC000FFE70498006C042807D1FFE70498016819
:103AD000086840F400700860FFE701208DF81700C7
:103AE00009E09DF80C00049909680861FFE70020CF
:103AF0008DF81700FFE79DF8170006B080BD0000A5
:103B000080B584B0029001910092FFE702980068AE
:103B1000406900F004010020B0EB910F3ED1FFE7B7
:103B20000298FFF72BFE20B1FFE701208DF80F0070
:103B300038E00198013080B3FFE7FEF723F80099E1
:103B4000401A0199884203D8FFE7019820BBFFE79C
:103B500002980068406900F004010020B0EB910F6A
:103B600019D1FFE7029900200863029A202182F808
:103B70003D10029981F83E000299086C40F0200047
:103B80000864FFE70299002081F83C00FFE701206C
:103B90008DF80F0006E0FFE7FFE7B7E700208DF89C
:103BA0000F00FFE79DF80F0004B080BD80B588B01E
:103BB000DDF828C0069005918DF813200393FFE7E8
:103BC0009DF8160001280CD1FFE7069800684069AF
:103BD000BDF814100840401AB0FA80F04009029075
:103BE0000BE0069800688069BDF814100840401A80
:103BF000B0FA80F040090290FFE702989DF8131098
:103C000088424FD1FFE703980130002849D0FFE7F1
:103C1000FDF7B8FF0A99401A0399884203D8FFE7D5
:103C20000398E8BBFFE79DF8160001280CD1FFE7D9
:103C3000069800684069BDF814100840401AB0FAB0
:103C400080F0400901900BE0069800688069BDF89B
:103C500014100840401AB0FA80F040090190FFE7C4
:103C600001989DF81310884219D1FFE706990020AA
:103C70000863069A202182F83D10069981F83E00DB
:103C80000699086C40F020000864FFE706990020C0
:103C900081F83C00FFE701208DF81F0006E0FFE7F8
:103CA000FFE78DE700208DF81F00FFE79DF81F005C
:103CB00008B080BD80B588B006900591049203934A
:103CC000FFE79DF8160001280CD1FFE70698006871
:103CD0004069BDF814100840401AB0FA80F040095D
:103CE00002900BE0069800688069BDF81410084047
:103CF000401AB0FA80F040090290FFE702980028CD
:103D00007AD1FFE706980068406900F480610120DD
:103D1000B0EB912F24D1FFE706980168086840F4C2
:103D200000700860069801686FF480604861069929
:103D300000200863069A202182F83D10069981F838
:103D40003E000699086C40F004000864FFE70699FD
:103D5000002081F83C00FFE701208DF81F004FE0B4
:103D600004980130002846D0FFE7FDF70BFF0399C8
:103D7000401A0499884203D8FFE70498D0BBFFE7B4
:103D80009DF8160001280CD1FFE7069800684069ED
:103D9000BDF814100840401AB0FA80F040090190B4
:103DA0000BE0069800688069BDF814100840401ABE
:103DB000B0FA80F040090190FFE70198C8B9FFE729
:103DC000069900200863069A202182F83D10069982
:103DD00081F83E000699086C40F020000864FFE777
:103DE0000699002081F83C00FFE701208DF81F00B4
:103DF00006E0FFE7FFE764E700208DF81F00FFE71C
:103E00009DF81F0008B080BD80B584B0029001917C
:103E10000092FFE702980068406900F0400100202E
:103E2000B0EB911F56D1FFE702980068406900F09F
:103E300010010120B0EB111F1CD1FFE702980168AF
:103E40006FF010004861029900200863029A202157
:103E500082F83D10029981F83E000299086C0864CE
:103E6000FFE70299002081F83C00FFE701208DF870
:103E70000F0033E0FDF786FE0099401A0199884251
:103E800003D8FFE7019820BBFFE70298006840696C
:103E900000F040010020B0EB911F19D1FFE702991B
:103EA00000200863029A202182F83D10029981F8CF
:103EB0003E000299086C40F020000864FFE7029978
:103EC000002081F83C00FFE701208DF80F0005E09D
:103ED000FFE79FE700208DF80F00FFE79DF80F0038
:103EE00004B080BD80B584B0029001910092FFE7DC
:103EF000029800684069C1B20020B0EBD11F3DD1EB
:103F0000FFE70298FFF73AFC20B1FFE701208DF8A8
:103F10000F0037E00198013078B3FFE7FDF732FE7C
:103F20000099401A0199884203D8FFE7019818BB0D
:103F3000FFE7029800684069C1B20020B0EBD11FD2
:103F400019D1FFE7029900200863029A202182F824
:103F50003D10029981F83E000299086C40F0200063
:103F60000864FFE70299002081F83C00FFE7012088
:103F70008DF80F0006E0FFE7FFE7B9E700208DF8B6
:103F80000F00FFE79DF80F0004B080BD81B00090E6
:103F9000009801281FD1FFE740F21060C2F2000034
:103FA000006838B9FFE740F21061C2F20001012059
:103FB00008600FE040F21060C2F2000000680128C3
:103FC00007D1FFE740F21061C2F200010020086053
:103FD000FFE7FFE7FFE70098022828D1FFE740F25C
:103FE0001060C2F20000006801281FD1FFE740F214
:103FF0000C60C2F20000006838B9FFE740F20C61C3
:10400000C2F20001012008600FE040F20C60C2F231
:1040100000000068012807D1FFE740F20C61C2F2FE
:10402000000100200860FFE7FFE7FFE7FFE70098D7
:1040300003282AD1FFE740F21060C2F200000068B6
:10404000012821D1FFE740F20C60C2F200000068B5
:1040500040B9FFE740F20401C2F2000108680130F4
:10406000086010E040F20C60C2F200000068012815
:1040700008D1FFE740F20801C2F2000108680130F0
:104080000860FFE7FFE7FFE7FFE7009804282AD171
:10409000FFE740F21060C2F200000068012821D161
:1040A000FFE740F20C60C2F20000006840B9FFE791
:1040B00040F20401C2F2000108680138086010E013
:1040C00040F20C60C2F200000068012808D1FFE74E
:1040D00040F20801C2F20001086801380860FFE7F9
:1040E000FFE7FFE7FFE701B07047000080B58EB043
:1040F00000200D900C900B900A90FFE741F2180001
:10410000C4F20200016841F020010160006800F083
:10411000200009900998FFE7FFE741F21800C4F278
:104120000200016841F004010160006800F0040031
:1041300008900898FFE7FFE741F21800C4F2020078
:10414000016841F008010160006800F00800079074
:104150000798FFE740F60000C4F2010001904021FB
:10416000009100220392FDF7F5FC039A40F600400F
:10417000C4F2010005900521FDF7ECFC05984FF411
:10418000806101220292FDF7E5FC0198029A0399F1
:104190000A920B910C910AA90691FDF71FFB019859
:1041A000029A039B06994FF01E0CCDF828C00B9382
:1041B0000C92FDF713FB009B0198029A06990A9353
:1041C0000B920C92022204920D92FDF707FB029BC8
:1041D000049A059806990A930B930C930D92FDF798
:1041E000FDFA029A039BDDF810C005980699CDF8F8
:1041F00028C00B930C92FDF7F1FADDF808C0039B81
:10420000049A0598069940F2044ECDF828E0CDF8BE
:104210002CC00C930D92FDF7E1FA0EB080BD0000AA
:1042200080B582B040F21450C2F20000019045F215
:104230000041C4F20001016048F2A061C0F2010136
:10424000416000218160C1604FF4804202614161A0
:104250008161C1610162FDF79BFC18B1FFE7FDF7C9
:1042600093FAFFE702B080BD80B582B040F268509B
:10427000C2F20000019043F20001C4F201010160AA
:104280004FF48271416000218160C1600161416130
:104290004FF4007282610822C26101624162816250
:1042A0000A21C162FEF71EFF18B1FFE7FDF76CFAA5
:1042B000FFE702B080BD000080B582B040F2C05080
:1042C000C2F20000019043F60001C4F20101016056
:1042D0004FF41651416000218160C16001610C22E0
:1042E00042618161C161FFF713F918B1FFE7FDF782
:1042F0004BFAFFE702B080BDFFE7FEE7FFE7FEE70E
:1043000088B0079006910592079800F00700049086
:104310000498C0F10700052803D3FFE704200190AB
:1043200004E00498C0F107000190FFE701980390B2
:1043300004980430062803D8FFE70020009003E02B
:10434000049803380090FFE70098029006980399BC
:10435000012202FA01F101390840029B98400599B7
:104360009A40013A1140084308B0704780B582B0C6
:1043700000208DF80700FFE79DF80700072823DCE1
:10438000FFE700208DF80600FFE79DF806007F2874
:1043900013DCFFE79DF8061040F29000C2F2000027
:1043A00000EBC1019DF8072000208854FFE79DF82D
:1043B000060001308DF80600E7E7FFE79DF80700EB
:1043C00001308DF80700D7E700F02EF902B080BD6C
:1043D00080B582B08DF807009DF8070028B9FFE787
:1043E000A620002100F0A2FAFFE79DF807000128AF
:1043F00005D1FFE7A720002100F098FAFFE702B0FF
:1044000080BD000080B582B08D200021019100F0B8
:104410008DFA0199142000F089FA0199AF2000F07B
:1044200085FA02B080BD000080B584B08DF80F0021
:104430009DF80F0050B9FFE7C8200021029100F05D
:1044400075FA0299A12000F071FAFFE79DF80F00BC
:1044500001280AD1FFE7C0200021019100F066FA8F
:104460000199A02000F062FAFFE704B080BD0000CF
:1044700082B08DF807008DF806108DF805209DF8A4
:104480000600C0088DF804009DF8060000F0070043
:104490008DF803009DF80310012088408DF802007C
:1044A0009DF8050080B1FFE79DF802309DF80710E8
:1044B00040F29000C2F2000000EBC1019DF8042020
:1044C000885C1843885422E09DF8071040F2900061
:1044D000C2F2000000EBC1029DF80430D15CC94378
:1044E000D1549DF802C09DF8071000EBC1029DF861
:1044F0000430D15C41EA0C01D1549DF8071000EB67
:10450000C1019DF80420885CC0438854FFE702B0D5
:104510007047000080B584B040F60000C4F201008E
:1045200000904021029100220392FDF713FBC82066
:104530000190FDF731F9009802990122FDF70AFB7D
:104540000399AE2000F0F2F90399084600F0EEF965
:104550000399102000F0EAF90399B02000F0E6F981
:104560000298039900F0E2F90399812000F0DEF946
:104570000399882000F0DAF90399822000F0D6F937
:104580000399084600F0D2F90399A12000F0CEF972
:104590000399A22000F0CAF90399A42000F0C6F9FB
:1045A0000399A62000F0C2F90399A82000F0BEF9F3
:1045B00003993F2000F0BAF90198039900F0B6F989
:1045C0000399D32000F0B2F90399084600F0AEF940
:1045D0000399D52000F0AAF90399A02000F0A6F9CC
:1045E0000399D92000F0A2F90399222000F09EF946
:1045F0000399DB2000F09AF90298039900F096F9EC
:104600000399312000F092F90399AD2000F08EF962
:1046100003998B2000F08AF9FFF7A8FE0399AF20D9
:1046200000F084F904B080BD80B582B000208DF820
:104630000700FFE79DF80700072835DCFFE79DF836
:104640000700B030C0B20021009100F06FF900996E
:10465000084600F06BF90099102000F067F9009807
:104660008DF80600FFE79DF806007F2815DCFFE7C0
:104670009DF8061040F29000C2F2000000EBC1006D
:104680009DF80710405C012100F050F9FFE79DF80C
:10469000060001308DF80600E5E7FFE79DF807000A
:1046A00001308DF80700C5E702B080BD80B584B049
:1046B000844606988DF80FC08DF80E108DF80D20E9
:1046C0008DF80C308DF80B009DF80F008DF805006B
:1046D0009DF80E008DF804009DF80C00082804D108
:1046E000FFE706208DF807000EE09DF80C10C808C3
:1046F000012202EBD1024B07002B18BF10464908DC
:1047000048438DF80700FFE79DF80D0020388DF82D
:10471000060000208DF80A00FFE79DF80A009DF8CA
:104720000710884280F2B580FFE79DF80C0008284A
:1047300010D1FFE79DF8060000EB400146F226503D
:10474000C0F6000000EB41009DF80A10405C8DF8B7
:10475000080040E09DF80C000C2810D1FFE79DF800
:10476000060000EB400146F24E70C0F6000000EB80
:1047700081009DF80A10405C8DF808002AE09DF841
:104780000C0010280ED1FFE79DF8061046F6C23047
:10479000C0F6000000EB01109DF80A10405C8DF897
:1047A000080016E09DF80C00182810D1FFE79DF8CE
:1047B000060000EBC00147F2B210C0F6000000EBAB
:1047C00081009DF80A10405C8DF8080000E060E070
:1047D000FFE7FFE7FFE700208DF80900FFE79DF8FE
:1047E000090007282BDCFFE79DF80800C00748B147
:1047F000FFE79DF80F009DF80E109DF80B20FFF7C6
:1048000037FE0BE09DF80F009DF80E109DF80B2071
:10481000B2FA82F25209FFF72BFEFFE79DF808007B
:1048200040088DF808009DF80E0001308DF80E004C
:10483000FFE79DF8090001308DF80900CFE79DF8EA
:104840000F0001308DF80F009DF80C00082815D0DE
:10485000FFE79DF80F009DF80510401A9DF80C1019
:10486000B0EB510F0AD1FFE79DF805008DF80F005E
:104870009DF8040008308DF80400FFE79DF804005F
:104880008DF80E00FFE79DF80A0001308DF80A0050
:1048900043E704B080BD000080B586B08446089828
:1048A0008DF817C08DF8161004928DF80F308DF822
:1048B0000E00FFE70498017800202029029008DB11
:1048C000FFE70498017800207F29B8BF01200290FB
:1048D000FFE70298C00738B3FFE79DF817009DF87F
:1048E0001610049A12789DF80F309DF80EC0EE460F
:1048F000CEF800C0FFF7DAFE9DF80F00082806D1B9
:10490000FFE79DF8170006308DF8170008E09DF8C6
:104910000F109DF8170000EB51008DF81700FFE70E
:10492000049801300490C5E706B080BD80B582B020
:104930008DF807008DF806109DF8060048B1FFE7D6
:1049400040F60040C4F2010001221146FDF702F9D1
:1049500008E040F60040C4F2010001210022FDF70A
:10496000F9F8FFE740F26850C2F200000DF10701CC
:10497000012200924FF47A73FEF770FC009A40F621
:104980000040C4F201001146FDF7E4F802B080BD1A
:104990007047000082B00190019840F20001C2F21D
:1049A00000010968C90844F6D352C1F26202A1FBB2
:1049B0000221890948430090FFE700BFFFE7009804
:1049C000411E00910028F8D1FFE702B070470000B7
:1049D00080B586B00490039102920498039B0299DB
:1049E0006A4611600221012200F028F848B1FFE771
:1049F0000499486D40F02000486503208DF81700A9
:104A000017E00498039B02996A46116080210022F6
:104A100000F014F848B1FFE70499486D40F0200019
:104A2000486503208DF8170003E000208DF817007B
:104A3000FFE79DF8170006B080BD000080B58AB082
:104A4000DDF830C0089007918DF81B20059305987C
:104A50000190FDF797F8024601980C99891A0844CD
:104A60000390FDF78FF80290039840F20001C2F224
:104A700000010968C1F3CB3148430490FFE708986F
:104A80000068806807990840401AB0FA80F0400931
:104A90009DF81B1088425ED0FFE705980130002882
:104AA00058D0FFE7FDF76EF80299401A0399884243
:104AB00004D2FFE70398002842D1FFE70898016875
:104AC000486820F0E000486008984068B0F5827FB0
:104AD00013D1FFE708988068B0F5004F06D0FFE7D4
:104AE00008988068B0F5806F07D1FFE708980168E3
:104AF000086820F040000860FFE70898806AB0F579
:104B0000005F0FD1FFE7FFE708980168086820F40D
:104B10000050086008980168086840F40050086078
:104B2000FFE7FFE70899012081F85100FFE70899A6
:104B3000002081F85000FFE703208DF827000EE0E9
:104B4000049818B9FFE700200390FFE704980138A4
:104B50000490FFE793E700208DF82700FFE79DF81A
:104B600027000AB080BD00007047000080B582B009
:104B7000009000980138B0F1807F03D3FFE7012057
:104B8000019019E0009801384EF21401CEF20001B4
:104B900008604FF0FF300F2100F06EF94EF218015F
:104BA000CEF20001002008604EF21002CEF20002A8
:104BB000072111600190FFE7019802B080BD00005D
:104BC00080B5FDF7EFFC80BD80B590B006A80090E1
:104BD0002821FBF7E9FB0098002305930493039336
:104BE00002930193012206924FF4803107910893BA
:104BF0000A9202220D920E914FF4E0110F91FDF7EF
:104C000033FF18B1FFE7FCF7BFFDFFE70F2001906E
:104C100002210291002003904FF4806204920590DB
:104C200001A8FDF76DFD18B1FFE7FCF7ADFDFFE74B
:104C300010B080BD7047000084B00390FFE7FFE72D
:104C40000398006850E8030F20F490700290FFE78B
:104C500002990398026842E803100028F0D1FFE7A8
:104C6000FFE7FFE7FFE70398006850E8050F20F033
:104C700001000190FFE701990398026842E80510DE
:104C80000028F0D1FFE7FFE70398006B012814D15B
:104C9000FFE7FFE7FFE70398006850E8030F20F005
:104CA00010000090FFE700990398026842E80310A3
:104CB0000028F0D1FFE7FFE7FFE70399202081F804
:104CC000420003990020086304B0704780B584B0A7
:104CD000039003980068006920F44050039A11681B
:104CE000D26810430861039988680A6949691043CA
:104CF0000843029003980068C06841F20C61884341
:104D00000299084303990968C860039800684069DC
:104D100020F44070039A1168926910434861039827
:104D2000006843F60001C4F20101884204D1FFE7A4
:104D3000FDF72AFE019003E0FDF714FE0190FFE766
:104D4000019819214843039A116852689200B0FBF8
:104D5000F2FC48F21F52C5F2EB12ACFB02304309E1
:104D6000642003FB10CC322000EB0C10A0FB0202ED
:104D7000F02000EA521000EB0310C2F3431210447B
:104D8000886004B080BD000080B586B0DDF820C02A
:104D9000049003918DF80B200193FFE704980068BD
:104DA000006803990840401AB0FA80F040099DF865
:104DB0000B1088424DD1FFE708980130002847D0FA
:104DC000FFE7FCF7DFFE0199401A0899884203D8F3
:104DD000FFE7089820B9FFE703208DF817003CE0B3
:104DE00004980068C0684007002830D5FFE70398A2
:104DF00080282CD0FFE70398402828D0FFE70498AC
:104E00000068006800F008010120B0EBD10F1DD14F
:104E1000FFE7FFE70020009004980068006800901A
:104E200004980068406800900098FFE70498FFF736
:104E300003FF049908204864FFE70499002081F8E3
:104E40004000FFE701208DF8170006E0FFE7FFE7CD
:104E5000A4E700208DF81700FFE79DF8170006B0C3
:104E600080BD0000FFE7FEE74EF60C50CEF20000DA
:104E70000068C0F30220704782B08DF807000091EF
:104E80009DF9070000280AD4FFE7009800019DF96A
:104E900007104EF20042CEF2000288540BE0009858
:104EA00000019DF8071001F00F014EF61452CEF2EA
:104EB00000028854FFE702B07047000083B0029000
:104EC000029800F0070000904EF60C51CEF200015F
:104ED0000868019001984FF6FF0210400190019878
:104EE000009A40EA02200022C0F2FA5210430190D8
:104EF0000198086003B0704780B582B040F60000AA
:104F0000C4F201000221FCF7F9FDA8B9FFE7FFE7B1
:104F100040F60000C4F201000221FCF7EFFD08B9E1
:104F2000FFE7F5E740F60040C4F201000421FCF77A
:104F3000FDFD0120019047E040F60000C4F20100B1
:104F40000421FCF7DBFD70B9FFE7FFE740F6000046
:104F5000C4F201000421FCF7D1FD08B9FFE7F5E731
:104F60000220019030E040F60000C4F20100082168
:104F7000FCF7C4FD70B9FFE7FFE740F60000C4F29C
:104F800001000821FCF7BAFD08B9FFE7F5E70320A7
:104F9000019019E040F60000C4F201001021FCF776
:104FA000ADFD70B9FFE7FFE740F60000C4F2010075
:104FB0001021FCF7A3FD08B9FFE7F5E704200190F5
:104FC00002E000200190FFE7019802B080BD0000E0
:104FD00080B588B0002001900790FDF7F1FAFFF747
:104FE000F3FDFFF783F8FFF73FF9FFF765F9FFF7E8
:104FF00017F9FFF78FFAFFF705FA0198FFF7E8F9BD
:105000000198FFF711FAFFF7B1F9FFF70DFB40F236
:10501000C050C2F20000069047F69071C0F6000141
:105020000B2264230593FEF70FFB059B069847F6BA
:105030001B71C0F60001029102220392FEF704FBED
:10504000FCF70AFB0698059B47F69C71C0F6000129
:105050000A220492FEF7F8FA0299039A059B069831
:10506000FEF7F2FA049A059B069847F61371C0F60C
:105070000001FEF7E9FAFFE7FFF73EFFFEF786FFC4
:1050800040F21060C2F20000006870BBFFE740F61B
:105090000040C4F201000221FCF730FD38B9FFE7FF
:1050A00040F20C61C2F200010120086006E040F20B
:1050B0000C61C2F2000100200860FFE700F022F856
:1050C00040F21460C2F20000016801310160006822
:1050D000052809DBFFE700F003F940F21461C2F292
:1050E000000100200860FFE70BE040F21060C2F210
:1050F00000000068012803D1FFE700F003F8FFE794
:10510000FFE7B9E780B58AB0FCF76EFA00F0A6FFBA
:10511000002209920023C4F2590300F045FE00F07A
:1051200011FE014640F21050C2F20000016000681A
:1051300001F000F80A4669464A60086040F22660BD
:10514000C2F2000047F6AA72C0F600020621FBF781
:10515000A7F840F20800C2F20000036840F22160A4
:10516000C2F2000047F6A772C0F6000208920521BD
:105170000791FBF795F80799089A40F20400C2F2EC
:105180000000036840F21C60C2F20000FBF788F8E0
:1051900009996A460120106047F62272C0F60002A3
:1051A00010230846FFF778FB40F21060C2F20000BF
:1051B000006868B9FFE769460120086047F6AF72EA
:1051C000C0F60002282000211023FFF765FB0CE049
:1051D00069460120086047F6B772C0F60002282031
:1051E00000211023FFF758FBFFE769460120086004
:1051F00047F62872C0F60002002010231946FFF778
:105200004BFB40F20C60C2F20000006868B9FFE797
:1052100069460120086047F61E72C0F60002382079
:1052200010231946FFF738FB0CE06946012008609F
:1052300047F6BF72C0F60002382010231946FFF768
:105240002BFBFFE7694601200490086047F6877250
:10525000C0F6000200200590202103911023069340
:10526000FFF71AFB03990498069B6A46106040F208
:105270002662C2F200024020FFF70EFB0499059857
:10528000069B6A46116047F63B72C0F60002302169
:10529000FFF702FB40F20C60C2F20000006868B940
:1052A000FFE769460120086040F21C62C2F200027A
:1052B000402030211023FFF7EFFA0CE0694601206F
:1052C000086040F22162C2F2000240203021102327
:1052D000FFF7E2FAFFE7FFF7A7F90AB080BD000089
:1052E00080B58CB040F20C60C2F20000006801286A
:1052F00040F08780FFE740F21050C2F200000068E3
:105300000B9040F20800C2F20000006800F0A8FF15
:1053100001460B9800F05CFF002867D1FFE740F2E0
:105320001050C2F20000006800F004FF0A4669460F
:105330004A60086040F22660C2F20000079047F61B
:10534000AA72C0F600020621FAF7AAFF40F208008E
:10535000C2F20000036840F22160C2F2000008902F
:1053600047F6A772C0F600020521FAF799FF40F64A
:105370000040C4F201004FF480610022FCF7EAFB18
:1053800040F2C050C2F200000A9047F64471C0F6E5
:10539000000122224FF496730993FEF755F90798FE
:1053A000FAF79EFF0799099B02460A9892B2FEF708
:1053B0004BF9099B0A9847F63071C0F600010A22A2
:1053C000FEF742F90898FAF78BFF0899099B024605
:1053D0000A9892B2FEF738F9099B0A9847F60E71BF
:1053E000C0F600010422FEF72FF909E040F6004064
:1053F000C4F201004FF480610122FCF7ABFBFFE730
:10540000FFE740F20C60C2F200000068002840F0A4
:105410008780FFE740F21050C2F20000006806905B
:1054200040F20400C2F20000006800F019FF0146DB
:10543000069800F0CDFE002867D1FFE740F210503B
:10544000C2F20000006800F075FE0A4669464A6034
:10545000086040F22660C2F20000029047F6AA728D
:10546000C0F600020621FAF71BFF40F20400C2F268
:105470000000036840F21C60C2F20000039047F68F
:10548000A772C0F600020521FAF70AFF40F60040B5
:10549000C4F201004FF480610022FCF75BFB40F294
:1054A000C050C2F20000059047F66771C0F60001D7
:1054B0001F224FF496730493FEF7C6F80298FAF78A
:1054C0000FFF0299049B0246059892B2FEF7BCF8C2
:1054D000049B059847F63071C0F600010A22FEF7DA
:1054E000B3F80398FAF7FCFE0399049B024605986B
:1054F00092B2FEF7A9F8049B059847F60E71C0F624
:1055000000010422FEF7A0F809E040F60040C4F2D2
:1055100001004FF480610122FCF71CFBFFE7FFE76D
:105520000CB080BD5FEA400C08BF91F0000F4FEA5D
:105530008C234FEAC12243EA51514FEA1C5018BF55
:1055400000F5F0404FEA300018BF41F000415FEA3B
:105550006C5C00F02980BCF1FF3F08BF40F0804048
:105560007047130C06BF12044FF0100C4FF0000CE4
:10557000130E04BF12020CF1080C130F04BF12012A
:105580000CF1040C930F04BF92000CF1020CD30F2A
:1055900004BF52000CF1010C11464FF00002A0F1C3
:1055A0001F00A0EB0C00704711F0004F08BF7047C0
:1055B00031F000413FF4D5AF0B0C06BF09044FF0AA
:1055C000100C4FF0000C0B0E04BF09020CF1080C7C
:1055D0000B0F04BF09010CF1040C8B0F04BF8900F1
:1055E0000CF1020CCB0F04BF49000CF1010CCCF103
:1055F000200322FA03F341EA030102FA0CF2A0EBC2
:105600000C0000F10100704723F07F4720F07F4C31
:1056100080EA030000F00040ACEB070303F57C5385
:1056200003F1FF032DE9804909B44FEA144324EA4A
:1056300003484FEA154B25EA0B4E0FF2042606EB02
:1056400013273E7803FB0667C7F5000707FB06F63E
:105650004FEAD64606F102064FEA543707FB066CBE
:10566000CCF1005C4FEA1C472CEA074C0CFB06F51A
:1056700007FB06F404EB15464FEA961649085FEA65
:10568000320234BF00204FF000404FEAD13706FB12
:1056900007FC4FEA1C4C0CFB0BF7D21B03FB0CF76F
:1056A00061EB07010CFB0EF7B0EB074072EB174202
:1056B0000CFB08F734BFA2EB0742B2EB074261EBE9
:1056C00017414FEA0C444FEA910706FB07FC4FEAEB
:1056D0001C4C0CFB0BF7B0EBC74072EB573203FBD3
:1056E0000CF734BFA2EBC742B2EBC74261EB5731B4
:1056F0000CFB0EF7B0EBC70072EB57720CFB08F710
:1057000034BFA2EBC702B2EBC70261EB57714FEA9D
:10571000816141EA92114FEA826242EA90124FEAB5
:10572000806004EBCC04039F4FEAD13706FB07FCF3
:105730004FEA1C4C0CFB0BF7D21B03FB0CF761EB85
:1057400007010CFB0EF7B0EB074072EB17420CFBA6
:1057500008F734BFA2EB0742B2EB074261EB1741F7
:105760004FEA8C5504EB9C244FEA910706FB07FC9B
:105770004FEA1C4C0CFB0BF7B0EBC74072EB5732F7
:1057800003FB0CF734BFA2EBC742B2EBC74261EB9D
:1057900057310CFB0EF7B0EBC70072EB57720CFBE6
:1057A00008F734BFA2EBC702B2EBC70261EB577137
:1057B0004FEA816141EA92114FEA826242EA901215
:1057C0004FEA806015EB4C2544F100044FEAD137D5
:1057D00006FB07FC4FEA1C4C0CFB0BF7D21B03FB30
:1057E0000CF761EB07010CFB0EF7B0EB074072EB17
:1057F00017420CFB08F734BFA2EB0742B2EB07429B
:1058000061EB17414FEA813141EA92414FEA82321E
:1058100042EA90424FEA80304FEA0C7615EB1C15B5
:1058200044F1000448EA03434EEA0B484FF0000EEF
:10583000B2EB080C71EB030724BF624639464EEB0E
:105840000E0E4FF0000B0018524149414BEB0B0B71
:10585000B2EB080C71EB03077BF1000B24BF62462F
:1058600039464EEB0E0E4FF0000B001852414941E5
:105870004BEB0B0BB2EB080C71EB03077BF1000B4E
:1058800024BF624639464EEB0E0E51EA020718BF9E
:1058900046F0010616EB0E7655F1000254F10001B8
:1058A00003D5BDE88901BDE80088BDE88901BDE8F0
:1058B0000048B619524141EB0101A3F101037047C1
:1058C00080807F7E7D7C7B7A79787776767574733D
:1058D000727171706F6E6E6D6C6C6B6A6A696868FC
:1058E000676666656464636362616160605F5F5E92
:1058F0005E5D5D5C5C5B5B5A5A5959585857575608
:10590000565555555454535352525251515050506C
:105910004F4F4F4E4E4D4D4D4C4C4C4B4B4B4A4ABE
:105920004A49494948484847474747464646454502
:10593000454444444443434343424242424141413B
:105940009C46002B30D477002BD04FEA37071CB58C
:1059500003B44FF010004FF01001BAF1000F06D061
:10596000BCF1000FDCBF40F0080040F008014FF030
:1059700000000FBCBDE810400BF1010BBBF1010FA3
:1059800008BF5FEA170722BF12F1010211F10101FE
:105990004FF0004143F1000300F0004043EA0000F3
:1059A0007047F9D35708D0E746EA06464FEA16464D
:1059B00013F1400F1FDD13F1200FDFBF16430A461E
:1059C000002120335B42BED0C3F1200746EA0646E1
:1059D0004FEA164602FA07F746EA070622FA03F2EA
:1059E000C3F1200701FA07F742EA070221FA03F19F
:1059F0004FF00003A7E746EA020646EA06464FEAEA
:105A0000164646EA0106BCBF46EA0646360C4FF08B
:105A100000034FF000024FF0000194E72DE9804CA5
:105A200070B49A46934691E8380007C831EA400CB2
:105A300048BF34EA430C03D5FFF7E6FDFFF780FFCC
:105A4000F0BCBDE8008C2DE9804C70B49A469346BA
:105A500091E8380007C810F0804F08BF13F0804F5E
:105A600003D100F005F8FFF76BFFF0BCBDE8008C38
:105A700020F07F4723F07F4C80EA030000F00040D5
:105A800007EB0C03A3F57C53A3F1FE0392F0000F88
:105A900000F0B38095F0000F00F077802DE9014908
:105AA0004FEA114021EA00484FEA144624EA06472B
:105AB00000FB06FC08FB06F607FB08F818EB064897
:105AC0004CEB164C00FB07F718EB07484CEB174064
:105AD0004FEA124B22EA0B4E4FEA154625EA0647DB
