:020000040800F2
:1000000018070020B5010008BD100008410F0008C6
:10001000B9100008BD020008D1100008000000005F
:10002000000000000000000000000000C5100008F3
:10003000C102000800000000C1100008C91000083B
:10004000CF010008CF010008CF010008CF01000850
:10005000CF010008CF010008CF010008CF01000840
:10006000CF010008CF010008CF010008CF01000830
:10007000CF010008CF010008CF010008CF01000820
:10008000CF010008CF010008CF010008CF01000810
:10009000CF010008CF010008CF010008CF01000800
:1000A000CF010008CF010008CF010008CF010008F0
:1000B000CF010008CF010008CF010008CF010008E0
:1000C000CF010008CF010008CF010008CF010008D0
:1000D000CF010008CF010008CF010008CF010008C0
:1000E000CF010008CF010008CF01000800F002F89E
:1000F00000F050F814A696E8000CB244B344DA4578
:1001000001D100F047F8BAE80F000FA696E83000DA
:10011000A5EB040504EB0607AAEB0704A7F101070A
:100120004FEA15154FEA3414A4F10104AC4201D38F
:1001300000F030F813F0010F18BFFB1A43F0010371
:1001400000F001F8DBE718475810000078100000B5
:10015000103A24BF78C878C1FAD8520724BF30C8F3
:1001600030C144BF04680C60704700007047000055
:100170000023002400250026103A28BF78C1FBD8B0
:10018000520728BF30C148BF0B6070471FB51FBD65
:1001900010B510BD00F058F81146FFF7F7FF00F05A
:1001A00099FF00F076F803B4FFF7F2FF03BC00F00C
:1001B0007DF800000948804709480047FEE7FEE750
:1001C000FEE7FEE7FEE7FEE7FEE7FEE7FEE7FEE707
:1001D00004480549054A064B70470000CD10000849
:1001E000ED00000818010020180700201803002067
:1001F000180300204FF0000200B5134694469646BF
:10020000203922BFA0E80C50A0E80C50B1F1200129
:10021000BFF4F7AF090728BFA0E80C5048BF0CC0D7
:100220005DF804EB890028BF40F8042B08BF704735
:1002300048BF20F8022B11F0804F18BF00F8012BA7
:100240007047704770477047754600F02BF8AE4610
:1002500005006946534620F00700854618B020B5D2
:10026000FFF7B6FFBDE820404FF000064FF0000753
:100270004FF000084FF0000BAC46ACE8C009ACE80A
:10028000C009ACE8C009ACE8C00921F007018D46FF
:10029000704710B50446AFF300802046BDE810401B
:1002A000FFF781BF00487047100000200149182067
:1002B000ABBEFEE72600020070470000FEE700002C
:1002C00070470000EFF3108072B600BFFEE7000039
:1002D000B0B5044600F016F9054640F20400C2F23B
:1002E00000000078611C18BF044400BF00F00AF948
:1002F000401BA042FAD3B0BD2DE9F04F82B00E688A
:10030000002E00F0F68041F20042C4F20102042304
:1003100040F2004E904208BF03234FF6FF7CC4F228
:10032000010E009300240123C1F2100C4FF0000ACB
:100330004FF0000943E0012704F00C030F229A401C
:100340002BEA020207FA03F34FEA9A051A4346F82A
:1003500025204E6840F20C45F202DEF8082054BF1A
:1003600022EA080242EA0802C4F20105CEF8082097
:100370002A68B30254BF22EA080242EA08022A604D
:10038000B303DEF8042054BF22EA080242EA08025E
:10039000F303CEF80420DEF800204FF0010354BF31
:1003A00022EA080242EA0802CEF800200E680AF1AA
:1003B000010A36FA0AF204F1040400F09A8003FA02
:1003C0000AFB16EA0B08F1D04E68664510DC122EC7
:1003D00050D8DFE806F0330A41454F4F4F4F4F4F9B
:1003E0004F4F4F4F4F4F4F484C00D1F80C9041E0CA
:1003F0004FF6FF72C1F2210296420FDC0022C1F2D9
:10040000110296421AD00022C1F21202964215D071
:100410000022C1F22102964210D02BE00022C1F24C
:10042000220296420AD00022C1F23102964205D041
:100430000022C1F2320296421CD100BF8A6842B14A
:10044000012A14BFC0F814B0C0F810B04FF008096A
:1004500010E04FF004090DE0CA6802F1080909E054
:100460004FF0000906E0CA6802F1040902E0CA6818
:1004700002F10C0922460646B8F5807F24BF203AD7
:10048000043637680F25954027EA050509FA02F278
:100490002A433260CA79D2067FF588AF41F2180349
:1004A000C4F202031A68AEF57E7642F001021A60C9
:1004B0001A6802F001020192019A2AF0030256F82A
:1004C00002B040F60002C4F2010290420FD040F6A2
:1004D0000042C4F2010290423FF42DAF41F200020B
:1004E000C4F20102009F904208BF022724E70027C0
:1004F00022E702B0BDE8F08F002A08BF09040161BD
:100500007047000040F21010C2F20000006870470F
:1005100040F2040040F21011C2F20000C2F20001E9
:1005200000780A68104408607047000080B542F205
:100530000000C4F20200016841F0100101600320D4
:1005400000F07EF80F2000F005F800F02BF80020F6
:1005500080BD0000B0B540F20402C2F2000240F2D9
:1005600000011278C2F200014FF47A730968B3FBFC
:10057000F2F20446B1FBF2F1084600F0A3FB0F2CA7
:100580004FF001050CD858B94FF0FF30214600223A
:10059000002500F029F840F20800C2F200000460D3
:1005A0002846B0BD82B041F21800C4F202000168D2
:1005B000022241F001010160016801F00101019195
:1005C0000199416841F080514160406800F08050DD
:1005D000009000980420C4F20100016862F31A61DF
:1005E000016002B07047000010B54EF60C5CCEF210
:1005F000000CDCF80030C3F3022E8EF00704042C4C
:1006000028BF0424BEF103034FF0FF3E0EFA04F4AA
:1006100038BF0023A14399400EFA03F39A431143D4
:1006200000F1604200F00F03090102F56442043B4F
:100630006344002848BF03F10C02117010BD000094
:100640004EF60C51CEF200010A684FF6FF031A4035
:1006500060F30A2242F0806040F0FD70086070474D
:10066000002804BF012070472DE9F04381B042F219
:100670000008C4F202080446D8F800000D4600F055
:10068000070088420CD2D8F8000020F00700284369
:10069000C8F80000D8F8000000F00700A8426BD1AD
:1006A000206841F204098107C4F2020917D5410705
:1006B00005D5D9F8001041F4E061C9F80010010730
:1006C00005D5D9F8001041F46051C9F80010D9F8E7
:1006D0000010A26821F0F0011143C9F80010C00712
:1006E00041D1D8F8000000F00700A8420CD9D8F892
:1006F000000020F007002843C8F80000D8F80000E8
:1007000000F00700A84237D12068410707D5D9F883
:100710000010E26821F4E0611143C9F800100007FD
:1007200008D5D9F80000216920F4605040EAC100E2
:10073000C9F80000D9F8002002F00C00082841F2A6
:100740000020C0F27A004DD141F28E13C2F38341F2
:10075000C0F60003595CD20338D440F60010C0F252
:100760003D0048433EE06068022809D0012828D1B6
:1007700059F8041C890307D4012001B0BDE8F083B7
:1007800059F8041C8901F7D5D9F8001021F00301AC
:100790000843C9F80000FFF7B5FE064641F2883766
:1007A000D9F80000616800F00C00B0EB810F98D020
:1007B000FFF7A8FE801BB842F2D9032001B0BDE8C4
:1007C000F08359F8041C8907D6D5DDE7D9F8002055
:1007D00041F28C13C2F34042C0F600039A5C4843D6
:1007E000B0FBF2F0D9F8001041F27412C1F303111A
:1007F000C0F60002515C40F2000220FA01F140F222
:100800000800C2F200000068C2F200021160FFF7A7
:10081000A1FE002001B0BDE8F083000040F200001E
:1008200041F20401C2F20000C4F20201006809684A
:1008300041F28412C1F30221C0F60002515CC840AB
:100840007047000040F2000041F20401C2F20000D3
:10085000C4F202010068096841F28412C1F3C221A6
:10086000C0F60002515CC84070470000002804BF79
:10087000012070472DE9F04182B00446007841F232
:100880000006C007C4F2020649D0706800F00C00F0
:10089000042809D13068800341D5606800283ED122
:1008A000012002B0BDE8F081706800F00C0008285B
:1008B00002D17068C003EDD465682DB1B5F5A02FE5
:1008C0000AD0B5F5803F0BD0306820F4803030601E
:1008D000306820F4802006E0306840F480203060EA
:1008E000306840F480303060FFF70CFE002D054684
:1008F00012D000BF3068800311D4FFF703FE401B05
:100900006428F7D918E100BFFFF7FCFD401B6428FD
:100910004FF0030000F2D88030688003F4D42078D0
:10092000800719D5706810F00C0F07D0706800F0C0
:100930000C00082827D17068C00324D430688007D1
:1009400003D52069012840F0A6803068616920F055
:10095000F80040EAC1003060207800074ED5A06959
:1009600038B30020C4F242200121C0F88014FFF700
:10097000C9FD0546706A80072DD4FFF7C3FD401BF3
:100980000228F7D9D8E02069002840F20000C4F21C
:10099000422000F0A88001210160FFF7B3FD054669
:1009A00030688007D1D4FFF7ADFD401B0228F7D98E
:1009B000C2E00020C4F242200021C0F88014FFF7FA
:1009C000A1FD0546706A800718D5FFF79BFD401B07
:1009D0000228F7D9B0E040F20000C2F2000000683F
:1009E00044F6D351C1F26201A0FB0101480A019013
:1009F00000BF0198411E00280191F9D120784007DD
:100A000017D4E5698DB1706800F00C00082846D154
:100A1000012D40D07068216A00F480328A423AD1B8
:100A2000616A00F47010884235D1002002B0BDE840
:100A3000F081F0695FEAC00808D4F06940F08050A6
:100A4000F061F06900F080500090009847F20007D4
:100A5000C4F200073868C0050FD4386840F48070CD
:100A60003860FFF74FFD05463868C00505D4FFF72D
:100A700049FD401B6428F7D95EE0E5681DB1052DEE
:100A800042D0012D44D0306A20F001003062306A3B
:100A900020F004003FE0012002B0BDE8F081002713
:100AA000C4F2422700203866FFF72CFD022D0546D0
:100AB0000ED100BF3068800155D5FFF723FD401BE4
:100AC00002284FF00300F5D902B0BDE8F08100BF65
:100AD00030688001A9D5FFF715FD401B02284FF0B3
:100AE0000300F5D9F0E700210160FFF70BFD054693
:100AF000306880077FF530AFFFF704FD401B022808
:100B00004FF00300F4D9DFE7306A40F004003062B0
:100B1000306A40F001003062FFF7F4FC002D05461A
:100B200041F2883713D000BF306A800712D4FFF734
:100B3000E9FC401BB842F7D9032002B0BDE8F081C0
:100B4000FFF7E0FC401BB8424FF00300BCD8306A0E
:100B50008007F5D4B8F1000F3FF553AFF06920F0EE
:100B60008050F0614DE7206AB0F5803F05D1716893
:100B7000A26821F40031114371607168626A21F446
:100B8000741111430843706001203866FFF7BAFC06
:100B9000044600BF306880013FF547AFFFF7B2FC65
:100BA000001B02284FF00300F4D98DE770B538B16F
:100BB0000446406A30B10020206104F1140007E0CF
:100BC000012070BD6068B0F5827F03D004F11C0085
:100BD000002101600026A66294F8510020B9204649
:100BE00084F8506000F038F8022084F8510094E84E
:100BF000071001F48271036802F4044223F04003F9
:100C00000360236911440CF40062114403F00202F2
:100C10006369114403F00102A369E569114403F417
:100C20000072114405F03802256A114405F0800273
:100C3000A56A114305F4005211430160042101EA41
:100C400013414160C16921F40061C1610120666501
:100C500084F85100304670BD80B586B0014640F63C
:100C60000000C4F20100096800F5205291424FF0E3
:100C70000001CDE90411CDE9021101D006B080BD1B
:100C800041F21801C4F202010A6842F480520A607B
:100C90000A6802F480520192019A0A6842F0040242
:100CA0000A60096801F0040101910199A0210291F3
:100CB000022103910321059102A9FFF71DFB06B054
:100CC00080BD0000411E0020B0EB116F1CBF012051
:100CD00070474EF21002CEF2000251604EF62351E0
:100CE000CEF20001F0230B70072190601160704775
:100CF000002804BF0120704710B5044690F8410059
:100D000028B9002084F84000204600F061F8242033
:100D100084F841002068D4E90212C36823F4005328
:100D2000C360036923F440531A430261D4E90423E6
:100D30001143C268194341F20C639A431143C160E5
:100D40004169A26921F44071114343F60002C4F2E3
:100D500001029042416102D0FFF760FD01E0FFF720
:100D600071FDD4E90023192148439900B0FBF1F04B
:100D700048F21F5CC5F2EB1CA0FB0C314FF69C73D4
:100D80004909C0F6FF7301FB0300322303EB001097
:100D9000A0FB0C03F02000EA531000EB0110C3F39A
:100DA0004311084490601069202120F490401061A4
:100DB000506920F02A005061D06840F40050D060A3
:100DC0000020606484F8411084F84210606310BD14
:100DD00070B586B040F60004C4F20104006804F562
:100DE0004051002688420596CDE90366029601D05F
:100DF00006B070BD41F21800C4F20200016802ADF5
:100E000041F480410160016801F480410191019940
:100E1000016841F0040101600068294600F0040007
:100E2000019001984FF4007002900220039003207B
:100E300005902046FFF760FA4FF48060CDE9020686
:100E4000204629460496FFF757FA06B070BD000009
:100E50002DE9F04381B0044690F8410020281CD1D0
:100E6000884600294FF0010066D01646002A63D05C
:100E70000020606421201D4684F84100FFF742FBFA
:100E8000A684E684A1680646B1F5805F01D1206999
:100E900038B1C1464FF0000805E0022001B0BDE8BE
:100EA000F0834FF00009E08C48B36F1C0CE0B9F1FF
:100EB000000F1BD019F8010B21684860E08C013845
:100EC000E084E08CD8B100BF206800680006EED452
:100ED000002FF9D0FFF716FB01464FF0030045B392
:100EE000891BA94225D82068C068EDE738F8020BB5
:100EF00021686FF35F2048604FF00009DEE720684B
:100F00000068400614D46F1C04E000BF206800682D
:100F100040060DD4002FF9D0FFF7F4FA01464FF048
:100F2000030035B1891BA94203D82068C068EDE7EA
:100F30000020202184F8411001B0BDE8F0830000BA
:100F4000FEE700002DE9F04385B0002741F21800CC
:100F5000CDE90377CDE90177C4F20200016840F6DC
:100F6000000841F0200101600168C4F2010801F0AD
:100F70002001009100990168002241F00401016004
:100F800001684FF0400901F00401009100990168E7
:100F900041F0080101600068402100F00800009065
:100FA00000984046FFF7A8FA08F58064204640F60E
:100FB00005410022FFF7A0FA01AD0126404629466F
:100FC000CDE901670397FFF797F91E20CDE90107E7
:100FD000404629460396FFF78FF9CDE901964FF079
:100FE0000209404629460397CDF81090FFF784F98F
:100FF00040F2054001A981E8C10220462946FFF7D9
:101000007BF920462946CDE901970397FFF774F94C
:101010004FF40060CDE9010620462946CDE9036979
:10102000FFF76AF905B0BDE8F083000010B540F2A3
:10103000700043F2000CC2F20000C4F2010C4FF445
:1010400082724FF4004300214FF4007E0824C0E96F
:1010500000C20A22C0E90231C0E90411C0E906E475
:10106000C0E90811C0E90A12FFF7A0FD002808BF77
:1010700010BDBDE81040FFF725B9000080B540F273
:10108000C80043F60001C2F20000C4F201010023CF
:101090004FF00C0C4FF4E13280E80E00C0E903334E
:1010A000C0E905C3C361FFF723FE002808BF80BD68
:1010B000BDE88040FFF706B9FEE70000FEE700004C
:1010C0007047000070470000FFF722BA7047000029
:1010D000FEE7000090B0FFF729FA06AC2046282171
:1010E000FFF788F8012006900A904FF4E0100025E1
:1010F0004FF4803102260F9020460595CDE9035527
:10110000CDE90155CDE90715CDE90D61FFF7AEFB3E
:1011100018B1EFF3108072B6FEE70F20CDE901069B
:101120004FF48060CDE9040501A802210395FFF783
:1011300097FA20B1EFF3108072B600BFFEE7FFF719
:1011400001FFFFF773FFFFF799FF40F2C804C2F2F7
:10115000000405A52046294614220A23FFF778FE3D
:101160006420FFF7B5F8F5E77465737433333131F4
:101170000000000000000000000000000102030465
:10118000060708090000000001020304010202032F
:101190000405060708090A0B0C0D0E0F10100000BD
:1011A000C0110008000000201000000050010008DD
:1011B000D01100081000002008070000700100088E
:1011C00000127A0001000000100000000000000082
:04000005080000ED02
:00000001FF
